{
  "contractName": "Registry",
  "abi": [
    {
      "anonymous": false,
      "inputs": [
        {
          "indexed": false,
          "internalType": "address",
          "name": "atmAddress",
          "type": "address"
        }
      ],
      "name": "ATMCreated",
      "type": "event"
    },
    {
      "anonymous": false,
      "inputs": [
        {
          "indexed": false,
          "internalType": "address",
          "name": "tokenAddress",
          "type": "address"
        }
      ],
      "name": "TokenCreated",
      "type": "event"
    },
    {
      "constant": true,
      "inputs": [
        {
          "internalType": "address",
          "name": "",
          "type": "address"
        }
      ],
      "name": "atms",
      "outputs": [
        {
          "internalType": "string",
          "name": "name",
          "type": "string"
        }
      ],
      "payable": false,
      "stateMutability": "view",
      "type": "function"
    },
    {
      "constant": true,
      "inputs": [
        {
          "internalType": "address",
          "name": "",
          "type": "address"
        }
      ],
      "name": "tokens",
      "outputs": [
        {
          "internalType": "address",
          "name": "issuer",
          "type": "address"
        },
        {
          "internalType": "string",
          "name": "name",
          "type": "string"
        },
        {
          "internalType": "string",
          "name": "symbol",
          "type": "string"
        },
        {
          "internalType": "uint256",
          "name": "supply",
          "type": "uint256"
        }
      ],
      "payable": false,
      "stateMutability": "view",
      "type": "function"
    },
    {
      "constant": false,
      "inputs": [
        {
          "internalType": "string",
          "name": "_name",
          "type": "string"
        }
      ],
      "name": "deployATM",
      "outputs": [
        {
          "internalType": "address",
          "name": "",
          "type": "address"
        }
      ],
      "payable": false,
      "stateMutability": "nonpayable",
      "type": "function"
    },
    {
      "constant": false,
      "inputs": [
        {
          "internalType": "string",
          "name": "_name",
          "type": "string"
        },
        {
          "internalType": "string",
          "name": "_symbol",
          "type": "string"
        },
        {
          "internalType": "uint8",
          "name": "_decimals",
          "type": "uint8"
        },
        {
          "internalType": "uint256",
          "name": "_initialSupply",
          "type": "uint256"
        },
        {
          "internalType": "address",
          "name": "_issuer",
          "type": "address"
        }
      ],
      "name": "deployToken",
      "outputs": [
        {
          "internalType": "address",
          "name": "",
          "type": "address"
        }
      ],
      "payable": false,
      "stateMutability": "nonpayable",
      "type": "function"
    }
  ],
  "bytecode": "0x608060405234801561001057600080fd5b50612251806100206000396000f3fe60806040523480156200001157600080fd5b5060043610620000525760003560e01c806331cff42b146200005757806373513ee6146200011f578063b8829354146200026c578063e4860339146200030d575b600080fd5b62000103600480360360208110156200006f57600080fd5b8101906020810181356401000000008111156200008b57600080fd5b8201836020820111156200009e57600080fd5b80359060200191846001830284011164010000000083111715620000c157600080fd5b91908080601f0160208091040260200160405190810160405280939291908181526020018383808284376000920191909152509295506200043a945050505050565b604080516001600160a01b039092168252519081900360200190f35b62000103600480360360a08110156200013757600080fd5b8101906020810181356401000000008111156200015357600080fd5b8201836020820111156200016657600080fd5b803590602001918460018302840111640100000000831117156200018957600080fd5b91908080601f0160208091040260200160405190810160405280939291908181526020018383808284376000920191909152509295949360208101935035915050640100000000811115620001dd57600080fd5b820183602082011115620001f057600080fd5b803590602001918460018302840111640100000000831117156200021357600080fd5b91908080601f0160208091040260200160405190810160405280939291908181526020018383808284376000920191909152509295505050813560ff16925050602081013590604001356001600160a01b03166200051b565b62000295600480360360208110156200028457600080fd5b50356001600160a01b03166200071b565b6040805160208082528351818301528351919283929083019185019080838360005b83811015620002d1578181015183820152602001620002b7565b50505050905090810190601f168015620002ff5780820380516001836020036101000a031916815260200191505b509250505060405180910390f35b62000336600480360360208110156200032557600080fd5b50356001600160a01b0316620007bb565b60405180856001600160a01b03166001600160a01b031681526020018060200180602001848152602001838103835286818151815260200191508051906020019080838360005b83811015620003975781810151838201526020016200037d565b50505050905090810190601f168015620003c55780820380516001836020036101000a031916815260200191505b50838103825285518152855160209182019187019080838360005b83811015620003fa578181015183820152602001620003e0565b50505050905090810190601f168015620004285780820380516001836020036101000a031916815260200191505b50965050505050505060405180910390f35b600080826040516200044c906200090c565b60208082528251818301528251829160408301919085019080838360005b83811015620004845781810151838201526020016200046a565b50505050905090810190601f168015620004b25780820380516001836020036101000a031916815260200191505b5092505050604051809103906000f080158015620004d4573d6000803e3d6000fd5b50604080516001600160a01b038316815290519192507f7c4d2affabdad6fe2f8da3328ff379e2e72acfe1e577a3495a4f7e3827c602d8919081900360200190a192915050565b600080868686868660405162000531906200091a565b60ff84166040820152606081018390526001600160a01b038216608082015260a08082528651908201528551819060208083019160c08401918a019080838360005b838110156200058d57818101518382015260200162000573565b50505050905090810190601f168015620005bb5780820380516001836020036101000a031916815260200191505b50838103825287518152875160209182019189019080838360005b83811015620005f0578181015183820152602001620005d6565b50505050905090810190601f1680156200061e5780820380516001836020036101000a031916815260200191505b50975050505050505050604051809103906000f08015801562000645573d6000803e3d6000fd5b506001600160a01b0381811660009081526020818152604090912080546001600160a01b03191692871692909217825589519293506200068f92600190920191908a019062000928565b506001600160a01b0381166000908152602081815260409091208751620006bf9260029092019189019062000928565b506001600160a01b03811660008181526020818152604091829020600301879055815192835290517f2e2b3f61b70d2d131b2a807371103cc98d51adcaa5e9a8f9c32658ad8426e74e9281900390910190a19695505050505050565b60016020818152600092835260409283902080548451600294821615610100026000190190911693909304601f8101839004830284018301909452838352928391830182828015620007b15780601f106200078557610100808354040283529160200191620007b1565b820191906000526020600020905b8154815290600101906020018083116200079357829003601f168201915b5050505050905081565b600060208181529181526040908190208054600180830180548551600261010094831615949094026000190190911692909204601f81018790048702830187019095528482526001600160a01b039092169492939092830182828015620008665780601f106200083a5761010080835404028352916020019162000866565b820191906000526020600020905b8154815290600101906020018083116200084857829003601f168201915b50505060028085018054604080516020601f6000196101006001871615020190941695909504928301859004850281018501909152818152959695945090925090830182828015620008fc5780601f10620008d057610100808354040283529160200191620008fc565b820191906000526020600020905b815481529060010190602001808311620008de57829003601f168201915b5050505050908060030154905084565b610ab080620009ce83390190565b610d9f806200147e83390190565b828054600181600116156101000203166002900490600052602060002090601f016020900481019282601f106200096b57805160ff19168380011785556200099b565b828001600101855582156200099b579182015b828111156200099b5782518255916020019190600101906200097e565b50620009a9929150620009ad565b5090565b620009ca91905b80821115620009a95760008155600101620009b4565b9056fe608060405234801561001057600080fd5b50604051610ab0380380610ab08339818101604052602081101561003357600080fd5b810190808051604051939291908464010000000082111561005357600080fd5b90830190602082018581111561006857600080fd5b825164010000000081118282018810171561008257600080fd5b82525081516020918201929091019080838360005b838110156100af578181015183820152602001610097565b50505050905090810190601f1680156100dc5780820380516001836020036101000a031916815260200191505b50604052505081516100f6915060009060208401906100fd565b5050610198565b828054600181600116156101000203166002900490600052602060002090601f016020900481019282601f1061013e57805160ff191683800117855561016b565b8280016001018555821561016b579182015b8281111561016b578251825591602001919060010190610150565b5061017792915061017b565b5090565b61019591905b808211156101775760008155600101610181565b90565b610909806101a76000396000f3fe608060405234801561001057600080fd5b50600436106100885760003560e01c8063e58432421161005b578063e58432421461026a578063e71bdf4114610298578063e7be01c6146102be578063fb51c178146102db57610088565b806306fdde031461008d5780632b7398551461010a57806367e7646f1461015e5780639ddd11dd14610186575b600080fd5b610095610370565b6040805160208082528351818301528351919283929083019185019080838360005b838110156100cf5781810151838201526020016100b7565b50505050905090810190601f1680156100fc5780820380516001836020036101000a031916815260200191505b509250505060405180910390f35b61014c600480360360a081101561012057600080fd5b508035906001600160a01b036020820135811691604081013582169160608201351690608001356103fe565b60408051918252519081900360200190f35b6101846004803603602081101561017457600080fd5b50356001600160a01b0316610467565b005b610256600480360360c081101561019c57600080fd5b6001600160a01b03823581169260208101358216926040820135909216916060820135919081019060a0810160808201356401000000008111156101df57600080fd5b8201836020820111156101f157600080fd5b8035906020019184600183028401116401000000008311171561021357600080fd5b91908080601f0160208091040260200160405190810160405280939291908181526020018383808284376000920191909152509295505091359250610495915050565b604080519115158252519081900360200190f35b6102566004803603604081101561028057600080fd5b506001600160a01b03813581169160200135166104be565b610184600480360360208110156102ae57600080fd5b50356001600160a01b03166104de565b610256600480360360208110156102d457600080fd5b503561050f565b610184600480360360a08110156102f157600080fd5b6001600160a01b03823581169260208101359091169160408201359160608101359181019060a08101608082013564010000000081111561033157600080fd5b82018360208201111561034357600080fd5b8035906020019184600183028401116401000000008311171561036557600080fd5b509092509050610524565b6000805460408051602060026001851615610100026000190190941693909304601f810184900484028201840190925281815292918301828280156103f65780601f106103cb576101008083540402835291602001916103f6565b820191906000526020600020905b8154815290600101906020018083116103d957829003601f168201915b505050505081565b6040805130606090811b60208084019190915260348301989098526bffffffffffffffffffffffff1996811b8716605483015294851b861660688201529290931b909316607c8201526090808201939093528151808203909301835260b0019052805191012090565b3360009081526002602090815260408083206001600160a01b0394909416835292905220805460ff19169055565b6000806104a585888a89876103fe565b90506104b281858a61071c565b98975050505050505050565b600260209081526000928352604080842090915290825290205460ff1681565b3360009081526002602090815260408083206001600160a01b0394909416835292905220805460ff19166001179055565b60016020526000908152604090205460ff1681565b600061053385338989886103fe565b905061057a8733888887878080601f0160208091040260200160405190810160405280939291908181526020018383808284376000920191909152508c9250610495915050565b6105cb576040805162461bcd60e51b815260206004820152601f60248201527f4365727469666963617465205369676e6174757265204e6f742056616c696400604482015290519081900360640190fd5b60008181526001602052604090205460ff161561062f576040805162461bcd60e51b815260206004820152601b60248201527f436572746966696361746520616c726561647920636c61696d65640000000000604482015290519081900360640190fd5b6000818152600160208181526040808420805460ff191690931790925581516323b872dd60e01b81526001600160a01b038b81166004830152336024830152604482018a905292518a94938516936323b872dd93606480850194919392918390030190829087803b1580156106a357600080fd5b505af11580156106b7573d6000803e3d6000fd5b505050506040513d60208110156106cd57600080fd5b5051610712576040805162461bcd60e51b815260206004820152600f60248201526e151c985b9cd9995c8811985a5b1959608a1b604482015290519081900360640190fd5b5050505050505050565b6000806107388461072c87610794565b9063ffffffff6107e516565b9050826001600160a01b0316816001600160a01b0316141561075e57600191505061078d565b6001600160a01b0380841660009081526002602090815260408083209490931682529290925290205460ff1690505b9392505050565b604080517f19457468657265756d205369676e6564204d6573736167653a0a333200000000602080830191909152603c8083019490945282518083039094018452605c909101909152815191012090565b600081516041146107f8575060006108ce565b60208201516040830151606084015160001a7f7fffffffffffffffffffffffffffffff5d576e7357a4501ddfe92f46681b20a082111561083e57600093505050506108ce565b8060ff16601b1415801561085657508060ff16601c14155b1561086757600093505050506108ce565b6040805160008152602080820180845289905260ff8416828401526060820186905260808201859052915160019260a0808401939192601f1981019281900390910190855afa1580156108be573d6000803e3d6000fd5b5050506020604051035193505050505b9291505056fea265627a7a72315820c8c9a75083ee948191411a0a20d3e2b348b2a32d7a3b6b1b5c0595d206643f6b64736f6c634300050e003260806040523480156200001157600080fd5b5060405162000d9f38038062000d9f833981810160405260a08110156200003757600080fd5b81019080805160405193929190846401000000008211156200005857600080fd5b9083019060208201858111156200006e57600080fd5b82516401000000008111828201881017156200008957600080fd5b82525081516020918201929091019080838360005b83811015620000b85781810151838201526020016200009e565b50505050905090810190601f168015620000e65780820380516001836020036101000a031916815260200191505b50604052602001805160405193929190846401000000008211156200010a57600080fd5b9083019060208201858111156200012057600080fd5b82516401000000008111828201881017156200013b57600080fd5b82525081516020918201929091019080838360005b838110156200016a57818101518382015260200162000150565b50505050905090810190601f168015620001985780820380516001836020036101000a031916815260200191505b506040908152602082810151918301516060909301518751929550929350620001c791600091880190620002a4565b508351620001dd906001906020870190620002a4565b506002805460ff191660ff85169081179091556000906200020f908490600a0a6200023d602090811b6200087517901c565b60038190556001600160a01b0390921660009081526004602052604090209190915550620003499350505050565b6000826200024e575060006200029e565b828202828482816200025c57fe5b04146200029b5760405162461bcd60e51b815260040180806020018281038252602181526020018062000d7e6021913960400191505060405180910390fd5b90505b92915050565b828054600181600116156101000203166002900490600052602060002090601f016020900481019282601f10620002e757805160ff191683800117855562000317565b8280016001018555821562000317579182015b8281111562000317578251825591602001919060010190620002fa565b506200032592915062000329565b5090565b6200034691905b8082111562000325576000815560010162000330565b90565b610a2580620003596000396000f3fe608060405234801561001057600080fd5b50600436106100b45760003560e01c80633eaaf86b116100715780633eaaf86b1461021057806370a082311461021857806395d89b411461023e578063a457c2d714610246578063a9059cbb14610272578063dd62ed3e1461029e576100b4565b806306fdde03146100b9578063095ea7b31461013657806318160ddd1461017657806323b872dd14610190578063313ce567146101c657806339509351146101e4575b600080fd5b6100c16102cc565b6040805160208082528351818301528351919283929083019185019080838360005b838110156100fb5781810151838201526020016100e3565b50505050905090810190601f1680156101285780820380516001836020036101000a031916815260200191505b509250505060405180910390f35b6101626004803603604081101561014c57600080fd5b506001600160a01b03813516906020013561035a565b604080519115158252519081900360200190f35b61017e610371565b60408051918252519081900360200190f35b610162600480360360608110156101a657600080fd5b506001600160a01b03813581169160208101359091169060400135610377565b6101ce6103e6565b6040805160ff9092168252519081900360200190f35b610162600480360360408110156101fa57600080fd5b506001600160a01b0381351690602001356103ef565b61017e61042b565b61017e6004803603602081101561022e57600080fd5b50356001600160a01b0316610431565b6100c161044c565b6101626004803603604081101561025c57600080fd5b506001600160a01b0381351690602001356104a6565b6101626004803603604081101561028857600080fd5b506001600160a01b0381351690602001356104fb565b61017e600480360360408110156102b457600080fd5b506001600160a01b0381358116916020013516610508565b6000805460408051602060026001851615610100026000190190941693909304601f810184900484028201840190925281815292918301828280156103525780601f1061032757610100808354040283529160200191610352565b820191906000526020600020905b81548152906001019060200180831161033557829003601f168201915b505050505081565b6000610367338484610533565b5060015b92915050565b60035490565b600061038484848461061f565b6103dc84336103d78560405180606001604052806028815260200161095b602891396001600160a01b038a166000908152600560209081526040808320338452909152902054919063ffffffff61077d16565b610533565b5060019392505050565b60025460ff1681565b3360008181526005602090815260408083206001600160a01b038716845290915281205490916103679185906103d7908663ffffffff61081416565b60035481565b6001600160a01b031660009081526004602052604090205490565b60018054604080516020600284861615610100026000190190941693909304601f810184900484028201840190925281815292918301828280156103525780601f1061032757610100808354040283529160200191610352565b600061036733846103d7856040518060600160405280602581526020016109cc602591393360009081526005602090815260408083206001600160a01b038d168452909152902054919063ffffffff61077d16565b600061036733848461061f565b6001600160a01b03918216600090815260056020908152604080832093909416825291909152205490565b6001600160a01b0383166105785760405162461bcd60e51b81526004018080602001828103825260248152602001806109a86024913960400191505060405180910390fd5b6001600160a01b0382166105bd5760405162461bcd60e51b81526004018080602001828103825260228152602001806108f26022913960400191505060405180910390fd5b6001600160a01b03808416600081815260056020908152604080832094871680845294825291829020859055815185815291517f8c5be1e5ebec7d5bd14f71427d1e84f3dd0314c0f7b2291e5b200ac8c7c3b9259281900390910190a3505050565b6001600160a01b0383166106645760405162461bcd60e51b81526004018080602001828103825260258152602001806109836025913960400191505060405180910390fd5b6001600160a01b0382166106a95760405162461bcd60e51b81526004018080602001828103825260238152602001806108cf6023913960400191505060405180910390fd5b6106ec81604051806060016040528060268152602001610914602691396001600160a01b038616600090815260046020526040902054919063ffffffff61077d16565b6001600160a01b038085166000908152600460205260408082209390935590841681522054610721908263ffffffff61081416565b6001600160a01b0380841660008181526004602090815260409182902094909455805185815290519193928716927fddf252ad1be2c89b69c2b068fc378daa952ba7f163c4a11628f55a4df523b3ef92918290030190a3505050565b6000818484111561080c5760405162461bcd60e51b81526004018080602001828103825283818151815260200191508051906020019080838360005b838110156107d15781810151838201526020016107b9565b50505050905090810190601f1680156107fe5780820380516001836020036101000a031916815260200191505b509250505060405180910390fd5b505050900390565b60008282018381101561086e576040805162461bcd60e51b815260206004820152601b60248201527f536166654d6174683a206164646974696f6e206f766572666c6f770000000000604482015290519081900360640190fd5b9392505050565b6000826108845750600061036b565b8282028284828161089157fe5b041461086e5760405162461bcd60e51b815260040180806020018281038252602181526020018061093a6021913960400191505060405180910390fdfe45524332303a207472616e7366657220746f20746865207a65726f206164647265737345524332303a20617070726f766520746f20746865207a65726f206164647265737345524332303a207472616e7366657220616d6f756e7420657863656564732062616c616e6365536166654d6174683a206d756c7469706c69636174696f6e206f766572666c6f7745524332303a207472616e7366657220616d6f756e74206578636565647320616c6c6f77616e636545524332303a207472616e736665722066726f6d20746865207a65726f206164647265737345524332303a20617070726f76652066726f6d20746865207a65726f206164647265737345524332303a2064656372656173656420616c6c6f77616e63652062656c6f77207a65726fa265627a7a72315820fbe690708d8d8a79df10e1561b24f26fc444f0aec9b7a38e20cb373bbdb506dc64736f6c634300050e0032536166654d6174683a206d756c7469706c69636174696f6e206f766572666c6f77a265627a7a723158208b5c0813b173163709bdd05167479e552690f0a856eea0e7b226cc545804a84664736f6c634300050e0032",
  "source": "pragma solidity ^0.5.0;\n\n/* --- Global --- */\nimport \"@openzeppelin/contracts/math/SafeMath.sol\";\n\n/* --- Local --- */\nimport \"./ATM.sol\";\nimport \"./ERC20.sol\";\n\ncontract Registry {\n    using SafeMath for uint256;\n\n    /* -------------------------------------- */\n    // Structs\n    /* -------------------------------------- */\n    struct atm {\n      string name;\n    }\n\n    struct token {\n      address issuer;\n      string name;\n      string symbol;\n      uint256 supply;\n    }\n\n    /* -------------------------------------- */\n    // Variables\n    /* -------------------------------------- */\n    mapping (address => token) public tokens;\n    mapping (address => atm) public atms;\n\n    /* -------------------------------------- */\n    // Events\n    /* -------------------------------------- */\n    event ATMCreated(address atmAddress);\n    event TokenCreated(address tokenAddress);\n\n    /* -------------------------------------- */\n    // Logic : Public : Functions\n    /* -------------------------------------- */\n    function deployATM(\n      string memory _name\n    ) \n    public returns (address) {\n        ATM a = new ATM(_name);\n        emit ATMCreated(address(a));\n        return address(a);\n    }\n\n    function deployToken(\n      string memory _name, \n      string memory _symbol, \n      uint8 _decimals, \n      uint256 _initialSupply, \n      address _issuer\n    ) \n    public returns (address) {\n        Token t = new Token(_name, _symbol, _decimals, _initialSupply, _issuer);\n        tokens[address(t)].issuer = _issuer;\n        tokens[address(t)].name = _name;\n        tokens[address(t)].symbol = _symbol;\n        tokens[address(t)].supply = _initialSupply;\n        emit TokenCreated(address(t));\n        return address(t);\n    }\n\n    /* -------------------------------------- */\n    // Getters : Public : Functions\n    /* -------------------------------------- */\n\n}",
  "sourcePath": "/Users/admin/Documents/GitHub/horizin/shadow/bank/token/contracts/Registry.sol",
  "compiler": {
    "name": "solc",
    "version": "0.5.14+commit.01f1aaa4.Emscripten.clang"
  },
  "schemaVersion": "3.0.23",
  "updatedAt": "2020-03-21T05:45:30.560Z",
  "networkType": "ethereum",
  "devdoc": {
    "methods": {}
  },
  "userdoc": {
    "methods": {}
  }
}