{
  "contractName": "Escrow",
  "abi": [
    {
      "constant": true,
      "inputs": [],
      "name": "price",
      "outputs": [
        {
          "name": "",
          "type": "uint256"
        }
      ],
      "payable": false,
      "stateMutability": "view",
      "type": "function"
    },
    {
      "inputs": [],
      "payable": true,
      "stateMutability": "payable",
      "type": "constructor"
    },
    {
      "constant": false,
      "inputs": [],
      "name": "cancel",
      "outputs": [],
      "payable": false,
      "stateMutability": "nonpayable",
      "type": "function"
    },
    {
      "constant": false,
      "inputs": [],
      "name": "confirmPurchase",
      "outputs": [],
      "payable": true,
      "stateMutability": "payable",
      "type": "function"
    },
    {
      "constant": false,
      "inputs": [],
      "name": "confirmReceived",
      "outputs": [],
      "payable": false,
      "stateMutability": "nonpayable",
      "type": "function"
    }
  ],
  "bytecode": "0x606060405260ec806100126000396000f300606060405260043610605d576000357c0100000000000000000000000000000000000000000000000000000000900463ffffffff16806373fac6f0146062578063a035b1fe146074578063d696069714609a578063ea8a1af01460a2575b600080fd5b3415606c57600080fd5b607260b4565b005b3415607e57600080fd5b608460b6565b6040518082815260200191505060405180910390f35b60a060bc565b005b341560ac57600080fd5b60b260be565b005b565b60005481565b565b5600a165627a7a723058208453c1181cff320812a3501268c595d2ca44a3ed50b3742326e99b6940f0d3a10029",
  "source": "pragma solidity ^0.4.19;\nimport \"zeppelin-solidity/contracts/math/SafeMath.sol\";\n\ncontract Escrow {\n    uint256 public price;\n\n    function Escrow() public payable {\n        // the seller creates Smart Contract\n    }\n\n    function cancel() public {\n        // the seller cancels created Smart Contract\n    }\n\n    function confirmPurchase() payable public {\n        // the buyer confirms the purchase\n    }\n\n    function confirmReceived() public {\n        // the buyer confirms goods received\n    }\n}",
  "sourcePath": "/Users/admin/Documents/GitHub/horizin/shadow-ganache/contracts/Escrow.sol",
  "compiler": {
    "name": "solc",
    "version": "0.4.21+commit.dfe3193c.Emscripten.clang"
  },
  "schemaVersion": "2.0.0",
  "updatedAt": "2020-03-18T01:03:31.518Z"
}