{
  "contractName": "LockingContract",
  "abi": [
    {
      "constant": true,
      "inputs": [],
      "name": "tokenContract",
      "outputs": [
        {
          "name": "",
          "type": "address"
        }
      ],
      "payable": false,
      "stateMutability": "view",
      "type": "function"
    },
    {
      "constant": true,
      "inputs": [],
      "name": "owner",
      "outputs": [
        {
          "name": "",
          "type": "address"
        }
      ],
      "payable": false,
      "stateMutability": "view",
      "type": "function"
    },
    {
      "constant": false,
      "inputs": [
        {
          "name": "newOwner",
          "type": "address"
        }
      ],
      "name": "transferOwnership",
      "outputs": [],
      "payable": false,
      "stateMutability": "nonpayable",
      "type": "function"
    },
    {
      "inputs": [
        {
          "name": "_tokenContract",
          "type": "address"
        },
        {
          "name": "_lockingDuration",
          "type": "uint256"
        }
      ],
      "payable": false,
      "stateMutability": "nonpayable",
      "type": "constructor"
    },
    {
      "anonymous": false,
      "inputs": [
        {
          "indexed": true,
          "name": "_beneficiary",
          "type": "address"
        },
        {
          "indexed": false,
          "name": "_tokenAmount",
          "type": "uint256"
        }
      ],
      "name": "NotedTokens",
      "type": "event"
    },
    {
      "anonymous": false,
      "inputs": [
        {
          "indexed": true,
          "name": "_beneficiary",
          "type": "address"
        }
      ],
      "name": "ReleasedTokens",
      "type": "event"
    },
    {
      "anonymous": false,
      "inputs": [
        {
          "indexed": false,
          "name": "_newUnlockTime",
          "type": "uint256"
        }
      ],
      "name": "ReducedLockingTime",
      "type": "event"
    },
    {
      "anonymous": false,
      "inputs": [
        {
          "indexed": true,
          "name": "previousOwner",
          "type": "address"
        },
        {
          "indexed": true,
          "name": "newOwner",
          "type": "address"
        }
      ],
      "name": "OwnershipTransferred",
      "type": "event"
    },
    {
      "constant": true,
      "inputs": [],
      "name": "isLocked",
      "outputs": [
        {
          "name": "",
          "type": "bool"
        }
      ],
      "payable": false,
      "stateMutability": "view",
      "type": "function"
    },
    {
      "constant": true,
      "inputs": [
        {
          "name": "_owner",
          "type": "address"
        }
      ],
      "name": "balanceOf",
      "outputs": [
        {
          "name": "balance",
          "type": "uint256"
        }
      ],
      "payable": false,
      "stateMutability": "view",
      "type": "function"
    },
    {
      "constant": false,
      "inputs": [
        {
          "name": "_beneficiary",
          "type": "address"
        },
        {
          "name": "_tokenAmount",
          "type": "uint256"
        }
      ],
      "name": "noteTokens",
      "outputs": [],
      "payable": false,
      "stateMutability": "nonpayable",
      "type": "function"
    },
    {
      "constant": false,
      "inputs": [
        {
          "name": "_beneficiary",
          "type": "address"
        }
      ],
      "name": "releaseTokens",
      "outputs": [],
      "payable": false,
      "stateMutability": "nonpayable",
      "type": "function"
    },
    {
      "constant": false,
      "inputs": [
        {
          "name": "_newUnlockTime",
          "type": "uint256"
        }
      ],
      "name": "reduceLockingTime",
      "outputs": [],
      "payable": false,
      "stateMutability": "nonpayable",
      "type": "function"
    }
  ],
  "bytecode": "0x6060604052341561000f57600080fd5b60405160408061060483398101604052808051906020019091908051906020019091905050336000806101000a81548173ffffffffffffffffffffffffffffffffffffffff021916908373ffffffffffffffffffffffffffffffffffffffff16021790555081600160006101000a81548173ffffffffffffffffffffffffffffffffffffffff021916908373ffffffffffffffffffffffffffffffffffffffff160217905550505061053e806100c66000396000f30060606040526004361061008e576000357c0100000000000000000000000000000000000000000000000000000000900463ffffffff16806355a373d61461009357806370a08231146100e857806387b0be48146101355780638da5cb5b1461016e578063a4e2d634146101c3578063b288d748146101f0578063b7381a2c14610213578063f2fde38b14610255575b600080fd5b341561009e57600080fd5b6100a661028e565b604051808273ffffffffffffffffffffffffffffffffffffffff1673ffffffffffffffffffffffffffffffffffffffff16815260200191505060405180910390f35b34156100f357600080fd5b61011f600480803573ffffffffffffffffffffffffffffffffffffffff169060200190919050506102b4565b6040518082815260200191505060405180910390f35b341561014057600080fd5b61016c600480803573ffffffffffffffffffffffffffffffffffffffff169060200190919050506102be565b005b341561017957600080fd5b610181610304565b604051808273ffffffffffffffffffffffffffffffffffffffff1673ffffffffffffffffffffffffffffffffffffffff16815260200191505060405180910390f35b34156101ce57600080fd5b6101d6610329565b604051808215151515815260200191505060405180910390f35b34156101fb57600080fd5b6102116004808035906020019091905050610331565b005b341561021e57600080fd5b610253600480803573ffffffffffffffffffffffffffffffffffffffff1690602001909190803590602001909190505061036b565b005b341561026057600080fd5b61028c600480803573ffffffffffffffffffffffffffffffffffffffff169060200190919050506103bd565b005b600160009054906101000a900473ffffffffffffffffffffffffffffffffffffffff1681565b6000809050919050565b8073ffffffffffffffffffffffffffffffffffffffff167f2b8b030b466a28f569a1aaf32d403aa99d8aaf8d915b06b75a607c2089eae50760405160405180910390a250565b6000809054906101000a900473ffffffffffffffffffffffffffffffffffffffff1681565b600080905090565b7fab9dfa812e732099fc613eefa5a007277fefe6b8379746e62819c7d23fecfd4c816040518082815260200191505060405180910390a150565b8173ffffffffffffffffffffffffffffffffffffffff167fe85617309c545775050fc95def797667e0f38b475c28e6596dbb9515fc726230826040518082815260200191505060405180910390a25050565b6000809054906101000a900473ffffffffffffffffffffffffffffffffffffffff1673ffffffffffffffffffffffffffffffffffffffff163373ffffffffffffffffffffffffffffffffffffffff1614151561041857600080fd5b600073ffffffffffffffffffffffffffffffffffffffff168173ffffffffffffffffffffffffffffffffffffffff161415151561045457600080fd5b8073ffffffffffffffffffffffffffffffffffffffff166000809054906101000a900473ffffffffffffffffffffffffffffffffffffffff1673ffffffffffffffffffffffffffffffffffffffff167f8be0079c531659141344cd1fd0a4f28419497f9722a3daafe3b4186f6b6457e060405160405180910390a3806000806101000a81548173ffffffffffffffffffffffffffffffffffffffff021916908373ffffffffffffffffffffffffffffffffffffffff160217905550505600a165627a7a723058200ebf9db7da8a1da4ee1742f8ada70e67587f4356e58cab96efcaa2ba76adec810029",
  "source": "pragma solidity ^0.4.19;\nimport \"zeppelin-solidity/contracts/ownership/Ownable.sol\";\nimport \"zeppelin-solidity/contracts/token/ERC20/ERC20.sol\";\nimport \"zeppelin-solidity/contracts/math/SafeMath.sol\";\n\ncontract LockingContract is Ownable {\n    using SafeMath for uint256;\n\n    event NotedTokens(address indexed _beneficiary, uint256 _tokenAmount);\n    event ReleasedTokens(address indexed _beneficiary);\n    event ReducedLockingTime(uint256 _newUnlockTime);\n\n    ERC20 public tokenContract;\n\n    function isLocked() public view returns(bool) {\n        return false;\n    }\n\n    function LockingContract(ERC20 _tokenContract, uint256 _lockingDuration) public {\n        tokenContract = _tokenContract;\n    }\n\n    function balanceOf(address _owner) public view returns (uint256 balance) {\n        return 0;\n    }\n\n    function noteTokens(address _beneficiary, uint256 _tokenAmount) external{\n\n        emit NotedTokens(_beneficiary, _tokenAmount);\n    }\n\n    function releaseTokens(address _beneficiary) public {\n\n        emit ReleasedTokens(_beneficiary);\n    }\n\n    function reduceLockingTime(uint256 _newUnlockTime) public {\n\n        emit ReducedLockingTime(_newUnlockTime);\n    }\n}\n",
  "sourcePath": "/Users/admin/Documents/GitHub/horizin/shadow-ganache/contracts/LockingContract.sol",
  "compiler": {
    "name": "solc",
    "version": "0.4.21+commit.dfe3193c.Emscripten.clang"
  },
  "schemaVersion": "2.0.0",
  "updatedAt": "2020-03-18T01:03:31.518Z"
}