{
  "contractName": "TimeConstrainedCounter",
  "abi": [
    {
      "constant": true,
      "inputs": [],
      "name": "endTime",
      "outputs": [
        {
          "name": "",
          "type": "uint256"
        }
      ],
      "payable": false,
      "stateMutability": "view",
      "type": "function"
    },
    {
      "constant": true,
      "inputs": [],
      "name": "value",
      "outputs": [
        {
          "name": "",
          "type": "uint32"
        }
      ],
      "payable": false,
      "stateMutability": "view",
      "type": "function"
    },
    {
      "constant": true,
      "inputs": [],
      "name": "startTime",
      "outputs": [
        {
          "name": "",
          "type": "uint256"
        }
      ],
      "payable": false,
      "stateMutability": "view",
      "type": "function"
    },
    {
      "inputs": [
        {
          "name": "_startTime",
          "type": "uint256"
        },
        {
          "name": "_endTime",
          "type": "uint256"
        }
      ],
      "payable": false,
      "stateMutability": "nonpayable",
      "type": "constructor"
    },
    {
      "constant": false,
      "inputs": [],
      "name": "increment",
      "outputs": [],
      "payable": false,
      "stateMutability": "nonpayable",
      "type": "function"
    },
    {
      "constant": true,
      "inputs": [],
      "name": "isInTime",
      "outputs": [
        {
          "name": "",
          "type": "bool"
        }
      ],
      "payable": false,
      "stateMutability": "view",
      "type": "function"
    }
  ],
  "bytecode": "0x6060604052341561000f57600080fd5b6040516040806102718339810160405280805190602001909190805190602001909190505081811015151561004357600080fd5b816001819055508060028190555060008060006101000a81548163ffffffff021916908363ffffffff16021790555050506101ee806100836000396000f30060606040526004361061006d576000357c0100000000000000000000000000000000000000000000000000000000900463ffffffff1680633197cbb6146100725780633fa4f2451461009b57806358226a76146100d057806378e97925146100fd578063d09de08a14610126575b600080fd5b341561007d57600080fd5b61008561013b565b6040518082815260200191505060405180910390f35b34156100a657600080fd5b6100ae610141565b604051808263ffffffff1663ffffffff16815260200191505060405180910390f35b34156100db57600080fd5b6100e3610156565b604051808215151515815260200191505060405180910390f35b341561010857600080fd5b610110610171565b6040518082815260200191505060405180910390f35b341561013157600080fd5b610139610177565b005b60025481565b6000809054906101000a900463ffffffff1681565b6000600154421015801561016c57506002544211155b905090565b60015481565b61017f610156565b151561018a57600080fd5b60016000808282829054906101000a900463ffffffff160192506101000a81548163ffffffff021916908363ffffffff1602179055505600a165627a7a723058200c7431e31cdddf7b131e32cf081b5e765093287a8989bf75d63e851b9d31adf80029",
  "source": "pragma solidity ^0.4.19;\n\ncontract TimeConstrainedCounter {\n  uint32 public value;\n\n  uint256 public startTime;\n  uint256 public endTime;\n\n  function TimeConstrainedCounter(uint256 _startTime, uint256 _endTime) public {\n    require(_endTime >= _startTime);\n\n    startTime = _startTime;\n    endTime = _endTime;\n    value = 0;\n  }\n  \n  function increment() public {\n    require(isInTime());\n    value += 1;\n  }\n\n  function isInTime() public constant returns (bool) {\n    return now >= startTime && now <= endTime;\n  }\n}\n",
  "sourcePath": "/Users/admin/Documents/GitHub/horizin/shadow-ganache/contracts/TimeConstrainedCounter.sol",
  "compiler": {
    "name": "solc",
    "version": "0.4.21+commit.dfe3193c.Emscripten.clang"
  },
  "schemaVersion": "2.0.0",
  "updatedAt": "2020-03-18T01:03:31.519Z"
}