{
  "contractName": "ATM",
  "abi": [
    {
      "inputs": [
        {
          "internalType": "string",
          "name": "_name",
          "type": "string"
        }
      ],
      "payable": false,
      "stateMutability": "nonpayable",
      "type": "constructor"
    },
    {
      "constant": true,
      "inputs": [
        {
          "internalType": "bytes32",
          "name": "",
          "type": "bytes32"
        }
      ],
      "name": "certificateClaimed",
      "outputs": [
        {
          "internalType": "bool",
          "name": "",
          "type": "bool"
        }
      ],
      "payable": false,
      "stateMutability": "view",
      "type": "function"
    },
    {
      "constant": true,
      "inputs": [
        {
          "internalType": "address",
          "name": "",
          "type": "address"
        },
        {
          "internalType": "address",
          "name": "",
          "type": "address"
        }
      ],
      "name": "delegates",
      "outputs": [
        {
          "internalType": "bool",
          "name": "",
          "type": "bool"
        }
      ],
      "payable": false,
      "stateMutability": "view",
      "type": "function"
    },
    {
      "constant": true,
      "inputs": [],
      "name": "name",
      "outputs": [
        {
          "internalType": "string",
          "name": "",
          "type": "string"
        }
      ],
      "payable": false,
      "stateMutability": "view",
      "type": "function"
    },
    {
      "constant": false,
      "inputs": [
        {
          "internalType": "address",
          "name": "_from",
          "type": "address"
        },
        {
          "internalType": "address",
          "name": "_erc20",
          "type": "address"
        },
        {
          "internalType": "uint256",
          "name": "_amount",
          "type": "uint256"
        },
        {
          "internalType": "uint256",
          "name": "_nonce",
          "type": "uint256"
        },
        {
          "internalType": "bytes",
          "name": "_signature",
          "type": "bytes"
        }
      ],
      "name": "redeem",
      "outputs": [],
      "payable": false,
      "stateMutability": "nonpayable",
      "type": "function"
    },
    {
      "constant": false,
      "inputs": [
        {
          "internalType": "address",
          "name": "_delegate",
          "type": "address"
        }
      ],
      "name": "addDelegate",
      "outputs": [],
      "payable": false,
      "stateMutability": "nonpayable",
      "type": "function"
    },
    {
      "constant": false,
      "inputs": [
        {
          "internalType": "address",
          "name": "_delegate",
          "type": "address"
        }
      ],
      "name": "removeDelegate",
      "outputs": [],
      "payable": false,
      "stateMutability": "nonpayable",
      "type": "function"
    },
    {
      "constant": true,
      "inputs": [
        {
          "internalType": "uint256",
          "name": "_amount",
          "type": "uint256"
        },
        {
          "internalType": "address",
          "name": "_recipient",
          "type": "address"
        },
        {
          "internalType": "address",
          "name": "_holder",
          "type": "address"
        },
        {
          "internalType": "address",
          "name": "_erc20",
          "type": "address"
        },
        {
          "internalType": "uint256",
          "name": "_nonce",
          "type": "uint256"
        }
      ],
      "name": "getCertificateHash",
      "outputs": [
        {
          "internalType": "bytes32",
          "name": "",
          "type": "bytes32"
        }
      ],
      "payable": false,
      "stateMutability": "view",
      "type": "function"
    },
    {
      "constant": true,
      "inputs": [
        {
          "internalType": "address",
          "name": "_from",
          "type": "address"
        },
        {
          "internalType": "address",
          "name": "_recipient",
          "type": "address"
        },
        {
          "internalType": "address",
          "name": "_erc20",
          "type": "address"
        },
        {
          "internalType": "uint256",
          "name": "_amount",
          "type": "uint256"
        },
        {
          "internalType": "bytes",
          "name": "_signature",
          "type": "bytes"
        },
        {
          "internalType": "uint256",
          "name": "_nonce",
          "type": "uint256"
        }
      ],
      "name": "verifyCertificate",
      "outputs": [
        {
          "internalType": "bool",
          "name": "",
          "type": "bool"
        }
      ],
      "payable": false,
      "stateMutability": "view",
      "type": "function"
    }
  ],
  "bytecode": "0x608060405234801561001057600080fd5b50604051610ab0380380610ab08339818101604052602081101561003357600080fd5b810190808051604051939291908464010000000082111561005357600080fd5b90830190602082018581111561006857600080fd5b825164010000000081118282018810171561008257600080fd5b82525081516020918201929091019080838360005b838110156100af578181015183820152602001610097565b50505050905090810190601f1680156100dc5780820380516001836020036101000a031916815260200191505b50604052505081516100f6915060009060208401906100fd565b5050610198565b828054600181600116156101000203166002900490600052602060002090601f016020900481019282601f1061013e57805160ff191683800117855561016b565b8280016001018555821561016b579182015b8281111561016b578251825591602001919060010190610150565b5061017792915061017b565b5090565b61019591905b808211156101775760008155600101610181565b90565b610909806101a76000396000f3fe608060405234801561001057600080fd5b50600436106100885760003560e01c8063e58432421161005b578063e58432421461026a578063e71bdf4114610298578063e7be01c6146102be578063fb51c178146102db57610088565b806306fdde031461008d5780632b7398551461010a57806367e7646f1461015e5780639ddd11dd14610186575b600080fd5b610095610370565b6040805160208082528351818301528351919283929083019185019080838360005b838110156100cf5781810151838201526020016100b7565b50505050905090810190601f1680156100fc5780820380516001836020036101000a031916815260200191505b509250505060405180910390f35b61014c600480360360a081101561012057600080fd5b508035906001600160a01b036020820135811691604081013582169160608201351690608001356103fe565b60408051918252519081900360200190f35b6101846004803603602081101561017457600080fd5b50356001600160a01b0316610467565b005b610256600480360360c081101561019c57600080fd5b6001600160a01b03823581169260208101358216926040820135909216916060820135919081019060a0810160808201356401000000008111156101df57600080fd5b8201836020820111156101f157600080fd5b8035906020019184600183028401116401000000008311171561021357600080fd5b91908080601f0160208091040260200160405190810160405280939291908181526020018383808284376000920191909152509295505091359250610495915050565b604080519115158252519081900360200190f35b6102566004803603604081101561028057600080fd5b506001600160a01b03813581169160200135166104be565b610184600480360360208110156102ae57600080fd5b50356001600160a01b03166104de565b610256600480360360208110156102d457600080fd5b503561050f565b610184600480360360a08110156102f157600080fd5b6001600160a01b03823581169260208101359091169160408201359160608101359181019060a08101608082013564010000000081111561033157600080fd5b82018360208201111561034357600080fd5b8035906020019184600183028401116401000000008311171561036557600080fd5b509092509050610524565b6000805460408051602060026001851615610100026000190190941693909304601f810184900484028201840190925281815292918301828280156103f65780601f106103cb576101008083540402835291602001916103f6565b820191906000526020600020905b8154815290600101906020018083116103d957829003601f168201915b505050505081565b6040805130606090811b60208084019190915260348301989098526bffffffffffffffffffffffff1996811b8716605483015294851b861660688201529290931b909316607c8201526090808201939093528151808203909301835260b0019052805191012090565b3360009081526002602090815260408083206001600160a01b0394909416835292905220805460ff19169055565b6000806104a585888a89876103fe565b90506104b281858a61071c565b98975050505050505050565b600260209081526000928352604080842090915290825290205460ff1681565b3360009081526002602090815260408083206001600160a01b0394909416835292905220805460ff19166001179055565b60016020526000908152604090205460ff1681565b600061053385338989886103fe565b905061057a8733888887878080601f0160208091040260200160405190810160405280939291908181526020018383808284376000920191909152508c9250610495915050565b6105cb576040805162461bcd60e51b815260206004820152601f60248201527f4365727469666963617465205369676e6174757265204e6f742056616c696400604482015290519081900360640190fd5b60008181526001602052604090205460ff161561062f576040805162461bcd60e51b815260206004820152601b60248201527f436572746966696361746520616c726561647920636c61696d65640000000000604482015290519081900360640190fd5b6000818152600160208181526040808420805460ff191690931790925581516323b872dd60e01b81526001600160a01b038b81166004830152336024830152604482018a905292518a94938516936323b872dd93606480850194919392918390030190829087803b1580156106a357600080fd5b505af11580156106b7573d6000803e3d6000fd5b505050506040513d60208110156106cd57600080fd5b5051610712576040805162461bcd60e51b815260206004820152600f60248201526e151c985b9cd9995c8811985a5b1959608a1b604482015290519081900360640190fd5b5050505050505050565b6000806107388461072c87610794565b9063ffffffff6107e516565b9050826001600160a01b0316816001600160a01b0316141561075e57600191505061078d565b6001600160a01b0380841660009081526002602090815260408083209490931682529290925290205460ff1690505b9392505050565b604080517f19457468657265756d205369676e6564204d6573736167653a0a333200000000602080830191909152603c8083019490945282518083039094018452605c909101909152815191012090565b600081516041146107f8575060006108ce565b60208201516040830151606084015160001a7f7fffffffffffffffffffffffffffffff5d576e7357a4501ddfe92f46681b20a082111561083e57600093505050506108ce565b8060ff16601b1415801561085657508060ff16601c14155b1561086757600093505050506108ce565b6040805160008152602080820180845289905260ff8416828401526060820186905260808201859052915160019260a0808401939192601f1981019281900390910190855afa1580156108be573d6000803e3d6000fd5b5050506020604051035193505050505b9291505056fea265627a7a72315820c8c9a75083ee948191411a0a20d3e2b348b2a32d7a3b6b1b5c0595d206643f6b64736f6c634300050e0032",
  "source": "pragma solidity ^0.5.0;\n\n\n/* --- Global --- */\nimport \"@openzeppelin/contracts/math/SafeMath.sol\";\nimport \"@openzeppelin/contracts/cryptography/ECDSA.sol\";\nimport \"@openzeppelin/contracts/token/ERC20/IERC20.sol\";\nimport \"@openzeppelin/contracts/token/ERC20/SafeERC20.sol\";\n\ncontract ATM {\n\n    using ECDSA for bytes32;\n    using SafeMath for uint256;\n\n    /* -------------------------------------- */\n    // Variables\n    /* -------------------------------------- */\n    /* --- Variable : Public --- */\n    string public name;\n    mapping (bytes32 => bool) public certificateClaimed;\n    mapping (address => mapping (address => bool)) public delegates;\n\n    /************\n     * PUBLIC FUNCTIONS\n     ***********/\n\n    constructor (\n        string memory _name\n    ) public {\n        name = _name;\n    }\n\n    /// Redeem\n    function redeem(\n        address _from,\n        address _erc20,\n        uint256 _amount,\n        uint256 _nonce,\n        bytes calldata _signature)\n        external\n    {\n        // Recreate hash from params\n        bytes32 certHash = getCertificateHash(_amount, msg.sender, _from, _erc20, _nonce);\n\n        // Verify signature is valid for the hash\n        // require(_verifySignature(certHash, _signature, _from), \"Certificate Signature Not Valid\");\n        require(verifyCertificate(_from, msg.sender, _erc20, _amount, _signature, _nonce), \"Certificate Signature Not Valid\");\n        // Verify that certificate is not already claimed\n        require(!certificateClaimed[certHash], \"Certificate already claimed\");\n\n        // Mark Claimed and transfer to recipient\n        certificateClaimed[certHash] = true;\n        IERC20 ERC20 = IERC20(_erc20);\n        require(ERC20.transferFrom(_from, msg.sender, _amount), \"Transfer Failed\");\n    }\n\n    function addDelegate(address _delegate) external {\n        delegates[msg.sender][_delegate] = true;\n    }\n    \n    function removeDelegate(address _delegate) external {\n        delegates[msg.sender][_delegate] = false;\n    }\n\n    /************\n     * VIEW FUNCTIONS\n     ***********/\n\n    /// Create Unsigned Certificate Hash\n    function getCertificateHash(\n        uint256 _amount,\n        address _recipient,\n        address _holder,\n        address _erc20,\n        uint256 _nonce)\n        public view returns (bytes32)\n    {\n        return keccak256(abi.encodePacked(address(this), _amount, _recipient, _holder, _erc20, _nonce));\n    }\n\n    /// Check Certificate Valid\n    function verifyCertificate(\n        address _from,\n        address _recipient,\n        address _erc20,\n        uint256 _amount,\n        bytes memory _signature,\n        uint256 _nonce)\n        public view returns (bool)\n    {\n        bytes32 certHash = getCertificateHash(_amount, _recipient, _from, _erc20, _nonce);\n        return _verifySignature(certHash, _signature, _from);\n    }\n\n    /************\n     * INTERNAL FUNCTIONS\n     ***********/\n\n    /// Verify signed hash\n    function _verifySignature(\n        bytes32 _hash,\n        bytes memory _signature,\n        address _from)\n        internal view returns (bool)\n    {\n        address signer = _hash.toEthSignedMessageHash().recover(_signature);\n        if (signer == _from) {\n            return true;\n        }\n        return delegates[_from][signer];\n    }\n}",
  "sourcePath": "/Users/admin/Documents/GitHub/horizin/shadow/bank/token/contracts/ATM.sol",
  "compiler": {
    "name": "solc",
    "version": "0.5.14+commit.01f1aaa4.Emscripten.clang"
  },
  "schemaVersion": "3.0.23",
  "updatedAt": "2020-03-21T04:42:44.441Z",
  "devdoc": {
    "methods": {}
  },
  "userdoc": {
    "methods": {
      "constructor": "********** PUBLIC FUNCTIONS**********",
      "getCertificateHash(uint256,address,address,address,uint256)": {
        "notice": "Create Unsigned Certificate Hash"
      },
      "redeem(address,address,uint256,uint256,bytes)": {
        "notice": "Redeem"
      },
      "verifyCertificate(address,address,address,uint256,bytes,uint256)": {
        "notice": "Check Certificate Valid"
      }
    }
  }
}