{
  "contractName": "Bank",
  "abi": [
    {
      "anonymous": false,
      "inputs": [
        {
          "indexed": false,
          "internalType": "address",
          "name": "atmAddress",
          "type": "address"
        },
        {
          "indexed": false,
          "internalType": "address",
          "name": "issuer",
          "type": "address"
        }
      ],
      "name": "ATMCreated",
      "type": "event"
    },
    {
      "anonymous": false,
      "inputs": [
        {
          "indexed": false,
          "internalType": "address",
          "name": "tokenAddress",
          "type": "address"
        },
        {
          "indexed": false,
          "internalType": "address",
          "name": "owner",
          "type": "address"
        }
      ],
      "name": "TokenCreated",
      "type": "event"
    },
    {
      "constant": true,
      "inputs": [
        {
          "internalType": "address",
          "name": "",
          "type": "address"
        }
      ],
      "name": "atms",
      "outputs": [
        {
          "internalType": "string",
          "name": "name",
          "type": "string"
        },
        {
          "internalType": "address",
          "name": "owner",
          "type": "address"
        }
      ],
      "payable": false,
      "stateMutability": "view",
      "type": "function"
    },
    {
      "constant": true,
      "inputs": [
        {
          "internalType": "address",
          "name": "",
          "type": "address"
        }
      ],
      "name": "tokens",
      "outputs": [
        {
          "internalType": "address",
          "name": "issuer",
          "type": "address"
        },
        {
          "internalType": "string",
          "name": "name",
          "type": "string"
        },
        {
          "internalType": "string",
          "name": "symbol",
          "type": "string"
        },
        {
          "internalType": "uint256",
          "name": "supply",
          "type": "uint256"
        }
      ],
      "payable": false,
      "stateMutability": "view",
      "type": "function"
    },
    {
      "constant": false,
      "inputs": [
        {
          "internalType": "string",
          "name": "_name",
          "type": "string"
        }
      ],
      "name": "deployATM",
      "outputs": [
        {
          "internalType": "address",
          "name": "",
          "type": "address"
        }
      ],
      "payable": false,
      "stateMutability": "nonpayable",
      "type": "function"
    },
    {
      "constant": false,
      "inputs": [
        {
          "internalType": "string",
          "name": "_name",
          "type": "string"
        },
        {
          "internalType": "string",
          "name": "_symbol",
          "type": "string"
        },
        {
          "internalType": "uint8",
          "name": "_decimals",
          "type": "uint8"
        },
        {
          "internalType": "uint256",
          "name": "_initialSupply",
          "type": "uint256"
        }
      ],
      "name": "deployToken",
      "outputs": [
        {
          "internalType": "address",
          "name": "",
          "type": "address"
        }
      ],
      "payable": false,
      "stateMutability": "nonpayable",
      "type": "function"
    }
  ],
  "bytecode": "0x608060405234801561001057600080fd5b506128a4806100206000396000f3fe60806040523480156200001157600080fd5b5060043610620000525760003560e01c806331cff42b1462000057578063b7d02044146200011f578063b8829354146200025d578063e4860339146200031a575b600080fd5b62000103600480360360208110156200006f57600080fd5b8101906020810181356401000000008111156200008b57600080fd5b8201836020820111156200009e57600080fd5b80359060200191846001830284011164010000000083111715620000c157600080fd5b91908080601f01602080910402602001604051908101604052809392919081815260200183838082843760009201919091525092955062000447945050505050565b604080516001600160a01b039092168252519081900360200190f35b62000103600480360360808110156200013757600080fd5b8101906020810181356401000000008111156200015357600080fd5b8201836020820111156200016657600080fd5b803590602001918460018302840111640100000000831117156200018957600080fd5b91908080601f0160208091040260200160405190810160405280939291908181526020018383808284376000920191909152509295949360208101935035915050640100000000811115620001dd57600080fd5b820183602082011115620001f057600080fd5b803590602001918460018302840111640100000000831117156200021357600080fd5b91908080601f0160208091040260200160405190810160405280939291908181526020018383808284376000920191909152509295505060ff833516935050506020013562000543565b62000286600480360360208110156200027557600080fd5b50356001600160a01b031662000740565b6040518080602001836001600160a01b03166001600160a01b03168152602001828103825284818151815260200191508051906020019080838360005b83811015620002dd578181015183820152602001620002c3565b50505050905090810190601f1680156200030b5780820380516001836020036101000a031916815260200191505b50935050505060405180910390f35b62000343600480360360208110156200033257600080fd5b50356001600160a01b0316620007ef565b60405180856001600160a01b03166001600160a01b031681526020018060200180602001848152602001838103835286818151815260200191508051906020019080838360005b83811015620003a45781810151838201526020016200038a565b50505050905090810190601f168015620003d25780820380516001836020036101000a031916815260200191505b50838103825285518152855160209182019187019080838360005b8381101562000407578181015183820152602001620003ed565b50505050905090810190601f168015620004355780820380516001836020036101000a031916815260200191505b50965050505050505060405180910390f35b60008082336040516200045a9062000940565b6001600160a01b03821660208083019190915260408083528451908301528351829160608301919086019080838360005b83811015620004a55781810151838201526020016200048b565b50505050905090810190601f168015620004d35780820380516001836020036101000a031916815260200191505b509350505050604051809103906000f080158015620004f6573d6000803e3d6000fd5b50604080516001600160a01b038316815233602082015281519293507f4cdc74138b56d7770356d92648a94aee9e8cb6f8bca4666f882c2056107b0942929081900390910190a192915050565b600080858585853360405162000559906200094e565b60ff84166040820152606081018390526001600160a01b038216608082015260a08082528651908201528551819060208083019160c08401918a019080838360005b83811015620005b55781810151838201526020016200059b565b50505050905090810190601f168015620005e35780820380516001836020036101000a031916815260200191505b50838103825287518152875160209182019189019080838360005b8381101562000618578181015183820152602001620005fe565b50505050905090810190601f168015620006465780820380516001836020036101000a031916815260200191505b50975050505050505050604051809103906000f0801580156200066d573d6000803e3d6000fd5b506001600160a01b03811660009081526020818152604090912080546001600160a01b031916331781558851929350620006b0926001909101918901906200095c565b506001600160a01b0381166000908152602081815260409091208651620006e0926002909201918801906200095c565b506001600160a01b038116600081815260208181526040918290206003018690558151928352339083015280517fd5f9bdf12adf29dab0248c349842c3822d53ae2bb4f36352f301630d018c81399281900390910190a195945050505050565b60016020818152600092835260409283902080548451600294821615610100026000190190911693909304601f8101839004830284018301909452838352928391830182828015620007d65780601f10620007aa57610100808354040283529160200191620007d6565b820191906000526020600020905b815481529060010190602001808311620007b857829003601f168201915b505050600190930154919250506001600160a01b031682565b600060208181529181526040908190208054600180830180548551600261010094831615949094026000190190911692909204601f81018790048702830187019095528482526001600160a01b0390921694929390928301828280156200089a5780601f106200086e576101008083540402835291602001916200089a565b820191906000526020600020905b8154815290600101906020018083116200087c57829003601f168201915b50505060028085018054604080516020601f6000196101006001871615020190941695909504928301859004850281018501909152818152959695945090925090830182828015620009305780601f10620009045761010080835404028352916020019162000930565b820191906000526020600020905b8154815290600101906020018083116200091257829003601f168201915b5050505050908060030154905084565b6110c88062000a0283390190565b610da68062001aca83390190565b828054600181600116156101000203166002900490600052602060002090601f016020900481019282601f106200099f57805160ff1916838001178555620009cf565b82800160010185558215620009cf579182015b82811115620009cf578251825591602001919060010190620009b2565b50620009dd929150620009e1565b5090565b620009fe91905b80821115620009dd5760008155600101620009e8565b9056fe60806040523480156200001157600080fd5b50604051620010c8380380620010c8833981810160405260408110156200003757600080fd5b81019080805160405193929190846401000000008211156200005857600080fd5b9083019060208201858111156200006e57600080fd5b82516401000000008111828201881017156200008957600080fd5b82525081516020918201929091019080838360005b83811015620000b85781810151838201526020016200009e565b50505050905090810190601f168015620000e65780820380516001836020036101000a031916815260200191505b506040526020015191506200010590506001600160e01b036200018616565b600080546001600160a01b0319166001600160a01b03928316178082556040519216917f8be0079c531659141344cd1fd0a4f28419497f9722a3daafe3b4186f6b6457e0908290a381516200016290600190602085019062000281565b506200017e8160046200018b60201b620009ea1790919060201c565b505062000323565b335b90565b620001a082826001600160e01b036200021816565b15620001f3576040805162461bcd60e51b815260206004820152601f60248201527f526f6c65733a206163636f756e7420616c72656164792068617320726f6c6500604482015290519081900360640190fd5b6001600160a01b0316600090815260209190915260409020805460ff19166001179055565b60006001600160a01b038216620002615760405162461bcd60e51b8152600401808060200182810382526022815260200180620010a66022913960400191505060405180910390fd5b506001600160a01b03166000908152602091909152604090205460ff1690565b828054600181600116156101000203166002900490600052602060002090601f016020900481019282601f10620002c457805160ff1916838001178555620002f4565b82800160010185558215620002f4579182015b82811115620002f4578251825591602001919060010190620002d7565b506200030292915062000306565b5090565b6200018891905b808211156200030257600081556001016200030d565b610d7380620003336000396000f3fe608060405234801561001057600080fd5b50600436106100b45760003560e01c80639ddd11dd116100715780639ddd11dd146101fa578063e5843242146102ca578063e71bdf41146102f8578063e7be01c61461031e578063f2fde38b1461033b578063fb51c17814610361576100b4565b806306fdde03146100b95780632b7398551461013657806367e7646f1461018a578063715018a6146101b25780638da5cb5b146101ba5780638f32d59b146101de575b600080fd5b6100c16103f6565b6040805160208082528351818301528351919283929083019185019080838360005b838110156100fb5781810151838201526020016100e3565b50505050905090810190601f1680156101285780820380516001836020036101000a031916815260200191505b509250505060405180910390f35b610178600480360360a081101561014c57600080fd5b508035906001600160a01b03602082013581169160408101358216916060820135169060800135610483565b60408051918252519081900360200190f35b6101b0600480360360208110156101a057600080fd5b50356001600160a01b03166104ec565b005b6101b0610547565b6101c26105d8565b604080516001600160a01b039092168252519081900360200190f35b6101e66105e7565b604080519115158252519081900360200190f35b6101e6600480360360c081101561021057600080fd5b6001600160a01b03823581169260208101358216926040820135909216916060820135919081019060a08101608082013564010000000081111561025357600080fd5b82018360208201111561026557600080fd5b8035906020019184600183028401116401000000008311171561028757600080fd5b91908080601f016020809104026020016040519081016040528093929190818152602001838380828437600092019190915250929550509135925061060b915050565b6101e6600480360360408110156102e057600080fd5b506001600160a01b0381358116916020013516610634565b6101b06004803603602081101561030e57600080fd5b50356001600160a01b0316610654565b6101e66004803603602081101561033457600080fd5b50356106ac565b6101b06004803603602081101561035157600080fd5b50356001600160a01b03166106c1565b6101b0600480360360a081101561037757600080fd5b6001600160a01b03823581169260208101359091169160408201359160608101359181019060a0810160808201356401000000008111156103b757600080fd5b8201836020820111156103c957600080fd5b803590602001918460018302840111640100000000831117156103eb57600080fd5b509092509050610711565b60018054604080516020600284861615610100026000190190941693909304601f8101849004840282018401909252818152929183018282801561047b5780601f106104505761010080835404028352916020019161047b565b820191906000526020600020905b81548152906001019060200180831161045e57829003601f168201915b505050505081565b6040805130606090811b60208084019190915260348301989098526bffffffffffffffffffffffff1996811b8716605483015294851b861660688201529290931b909316607c8201526090808201939093528151808203909301835260b0019052805191012090565b6104f46105e7565b610533576040805162461bcd60e51b81526020600482018190526024820152600080516020610cfd833981519152604482015290519081900360640190fd5b61054460048263ffffffff61090716565b50565b61054f6105e7565b61058e576040805162461bcd60e51b81526020600482018190526024820152600080516020610cfd833981519152604482015290519081900360640190fd5b600080546040516001600160a01b03909116907f8be0079c531659141344cd1fd0a4f28419497f9722a3daafe3b4186f6b6457e0908390a3600080546001600160a01b0319169055565b6000546001600160a01b031690565b600080546001600160a01b03166105fc61096e565b6001600160a01b031614905090565b60008061061b85888a8987610483565b905061062881858a610972565b98975050505050505050565b600360209081526000928352604080842090915290825290205460ff1681565b61065c6105e7565b61069b576040805162461bcd60e51b81526020600482018190526024820152600080516020610cfd833981519152604482015290519081900360640190fd5b61054460048263ffffffff6109ea16565b60026020526000908152604090205460ff1681565b6106c96105e7565b610708576040805162461bcd60e51b81526020600482018190526024820152600080516020610cfd833981519152604482015290519081900360640190fd5b61054481610a6b565b60006107208533898988610483565b90506107678733888887878080601f0160208091040260200160405190810160405280939291908181526020018383808284376000920191909152508c925061060b915050565b6107b8576040805162461bcd60e51b815260206004820152601f60248201527f4365727469666963617465205369676e6174757265204e6f742056616c696400604482015290519081900360640190fd5b60008181526002602052604090205460ff161561081c576040805162461bcd60e51b815260206004820152601b60248201527f436572746966696361746520616c726561647920636c61696d65640000000000604482015290519081900360640190fd5b6000818152600260209081526040808320805460ff1916600117905580516323b872dd60e01b81526001600160a01b038b81166004830152336024830152604482018a905291518a94928516936323b872dd936064808501949293928390030190829087803b15801561088e57600080fd5b505af11580156108a2573d6000803e3d6000fd5b505050506040513d60208110156108b857600080fd5b50516108fd576040805162461bcd60e51b815260206004820152600f60248201526e151c985b9cd9995c8811985a5b1959608a1b604482015290519081900360640190fd5b5050505050505050565b6109118282610b0b565b61094c5760405162461bcd60e51b8152600401808060200182810382526021815260200180610cdc6021913960400191505060405180910390fd5b6001600160a01b0316600090815260209190915260409020805460ff19169055565b3390565b60008061098e8461098287610b76565b9063ffffffff610bc716565b9050826001600160a01b0316816001600160a01b031614156109b45760019150506109e3565b6001600160a01b0380841660009081526003602090815260408083209490931682529290925290205460ff1690505b9392505050565b6109f48282610b0b565b15610a46576040805162461bcd60e51b815260206004820152601f60248201527f526f6c65733a206163636f756e7420616c72656164792068617320726f6c6500604482015290519081900360640190fd5b6001600160a01b0316600090815260209190915260409020805460ff19166001179055565b6001600160a01b038116610ab05760405162461bcd60e51b8152600401808060200182810382526026815260200180610cb66026913960400191505060405180910390fd5b600080546040516001600160a01b03808516939216917f8be0079c531659141344cd1fd0a4f28419497f9722a3daafe3b4186f6b6457e091a3600080546001600160a01b0319166001600160a01b0392909216919091179055565b60006001600160a01b038216610b525760405162461bcd60e51b8152600401808060200182810382526022815260200180610d1d6022913960400191505060405180910390fd5b506001600160a01b03811660009081526020839052604090205460ff165b92915050565b604080517f19457468657265756d205369676e6564204d6573736167653a0a333200000000602080830191909152603c8083019490945282518083039094018452605c909101909152815191012090565b60008151604114610bda57506000610b70565b60208201516040830151606084015160001a7f7fffffffffffffffffffffffffffffff5d576e7357a4501ddfe92f46681b20a0821115610c205760009350505050610b70565b8060ff16601b14158015610c3857508060ff16601c14155b15610c495760009350505050610b70565b6040805160008152602080820180845289905260ff8416828401526060820186905260808201859052915160019260a0808401939192601f1981019281900390910190855afa158015610ca0573d6000803e3d6000fd5b5050604051601f19015197965050505050505056fe4f776e61626c653a206e6577206f776e657220697320746865207a65726f2061646472657373526f6c65733a206163636f756e7420646f6573206e6f74206861766520726f6c654f776e61626c653a2063616c6c6572206973206e6f7420746865206f776e6572526f6c65733a206163636f756e7420697320746865207a65726f2061646472657373a265627a7a723158209519b35f1ac6a794ed2835b0a105b64151e971155741559d14a00431f85864b464736f6c634300050e0032526f6c65733a206163636f756e7420697320746865207a65726f206164647265737360806040523480156200001157600080fd5b5060405162000da638038062000da6833981810160405260a08110156200003757600080fd5b81019080805160405193929190846401000000008211156200005857600080fd5b9083019060208201858111156200006e57600080fd5b82516401000000008111828201881017156200008957600080fd5b82525081516020918201929091019080838360005b83811015620000b85781810151838201526020016200009e565b50505050905090810190601f168015620000e65780820380516001836020036101000a031916815260200191505b50604052602001805160405193929190846401000000008211156200010a57600080fd5b9083019060208201858111156200012057600080fd5b82516401000000008111828201881017156200013b57600080fd5b82525081516020918201929091019080838360005b838110156200016a57818101518382015260200162000150565b50505050905090810190601f168015620001985780820380516001836020036101000a031916815260200191505b5060409081526020828101519183015160609093015191945091925090600090620001d690849060ff8716600a0a906200087562000244821b17901c565b8651909150620001ee906000906020890190620002ab565b50845162000204906001906020880190620002ab565b506002805460ff191660ff959095169490941790935560038390556001600160a01b03166000908152600460205260409020919091555062000350915050565b6000826200025557506000620002a5565b828202828482816200026357fe5b0414620002a25760405162461bcd60e51b815260040180806020018281038252602181526020018062000d856021913960400191505060405180910390fd5b90505b92915050565b828054600181600116156101000203166002900490600052602060002090601f016020900481019282601f10620002ee57805160ff19168380011785556200031e565b828001600101855582156200031e579182015b828111156200031e57825182559160200191906001019062000301565b506200032c92915062000330565b5090565b6200034d91905b808211156200032c576000815560010162000337565b90565b610a2580620003606000396000f3fe608060405234801561001057600080fd5b50600436106100b45760003560e01c80633eaaf86b116100715780633eaaf86b1461021057806370a082311461021857806395d89b411461023e578063a457c2d714610246578063a9059cbb14610272578063dd62ed3e1461029e576100b4565b806306fdde03146100b9578063095ea7b31461013657806318160ddd1461017657806323b872dd14610190578063313ce567146101c657806339509351146101e4575b600080fd5b6100c16102cc565b6040805160208082528351818301528351919283929083019185019080838360005b838110156100fb5781810151838201526020016100e3565b50505050905090810190601f1680156101285780820380516001836020036101000a031916815260200191505b509250505060405180910390f35b6101626004803603604081101561014c57600080fd5b506001600160a01b03813516906020013561035a565b604080519115158252519081900360200190f35b61017e610371565b60408051918252519081900360200190f35b610162600480360360608110156101a657600080fd5b506001600160a01b03813581169160208101359091169060400135610377565b6101ce6103e6565b6040805160ff9092168252519081900360200190f35b610162600480360360408110156101fa57600080fd5b506001600160a01b0381351690602001356103ef565b61017e61042b565b61017e6004803603602081101561022e57600080fd5b50356001600160a01b0316610431565b6100c161044c565b6101626004803603604081101561025c57600080fd5b506001600160a01b0381351690602001356104a6565b6101626004803603604081101561028857600080fd5b506001600160a01b0381351690602001356104fb565b61017e600480360360408110156102b457600080fd5b506001600160a01b0381358116916020013516610508565b6000805460408051602060026001851615610100026000190190941693909304601f810184900484028201840190925281815292918301828280156103525780601f1061032757610100808354040283529160200191610352565b820191906000526020600020905b81548152906001019060200180831161033557829003601f168201915b505050505081565b6000610367338484610533565b5060015b92915050565b60035490565b600061038484848461061f565b6103dc84336103d78560405180606001604052806028815260200161095b602891396001600160a01b038a166000908152600560209081526040808320338452909152902054919063ffffffff61077d16565b610533565b5060019392505050565b60025460ff1681565b3360008181526005602090815260408083206001600160a01b038716845290915281205490916103679185906103d7908663ffffffff61081416565b60035481565b6001600160a01b031660009081526004602052604090205490565b60018054604080516020600284861615610100026000190190941693909304601f810184900484028201840190925281815292918301828280156103525780601f1061032757610100808354040283529160200191610352565b600061036733846103d7856040518060600160405280602581526020016109cc602591393360009081526005602090815260408083206001600160a01b038d168452909152902054919063ffffffff61077d16565b600061036733848461061f565b6001600160a01b03918216600090815260056020908152604080832093909416825291909152205490565b6001600160a01b0383166105785760405162461bcd60e51b81526004018080602001828103825260248152602001806109a86024913960400191505060405180910390fd5b6001600160a01b0382166105bd5760405162461bcd60e51b81526004018080602001828103825260228152602001806108f26022913960400191505060405180910390fd5b6001600160a01b03808416600081815260056020908152604080832094871680845294825291829020859055815185815291517f8c5be1e5ebec7d5bd14f71427d1e84f3dd0314c0f7b2291e5b200ac8c7c3b9259281900390910190a3505050565b6001600160a01b0383166106645760405162461bcd60e51b81526004018080602001828103825260258152602001806109836025913960400191505060405180910390fd5b6001600160a01b0382166106a95760405162461bcd60e51b81526004018080602001828103825260238152602001806108cf6023913960400191505060405180910390fd5b6106ec81604051806060016040528060268152602001610914602691396001600160a01b038616600090815260046020526040902054919063ffffffff61077d16565b6001600160a01b038085166000908152600460205260408082209390935590841681522054610721908263ffffffff61081416565b6001600160a01b0380841660008181526004602090815260409182902094909455805185815290519193928716927fddf252ad1be2c89b69c2b068fc378daa952ba7f163c4a11628f55a4df523b3ef92918290030190a3505050565b6000818484111561080c5760405162461bcd60e51b81526004018080602001828103825283818151815260200191508051906020019080838360005b838110156107d15781810151838201526020016107b9565b50505050905090810190601f1680156107fe5780820380516001836020036101000a031916815260200191505b509250505060405180910390fd5b505050900390565b60008282018381101561086e576040805162461bcd60e51b815260206004820152601b60248201527f536166654d6174683a206164646974696f6e206f766572666c6f770000000000604482015290519081900360640190fd5b9392505050565b6000826108845750600061036b565b8282028284828161089157fe5b041461086e5760405162461bcd60e51b815260040180806020018281038252602181526020018061093a6021913960400191505060405180910390fdfe45524332303a207472616e7366657220746f20746865207a65726f206164647265737345524332303a20617070726f766520746f20746865207a65726f206164647265737345524332303a207472616e7366657220616d6f756e7420657863656564732062616c616e6365536166654d6174683a206d756c7469706c69636174696f6e206f766572666c6f7745524332303a207472616e7366657220616d6f756e74206578636565647320616c6c6f77616e636545524332303a207472616e736665722066726f6d20746865207a65726f206164647265737345524332303a20617070726f76652066726f6d20746865207a65726f206164647265737345524332303a2064656372656173656420616c6c6f77616e63652062656c6f77207a65726fa265627a7a7231582038f67f888c238b16cf3c41e6e68edb493961409d44654b3805c134038a8bec1e64736f6c634300050e0032536166654d6174683a206d756c7469706c69636174696f6e206f766572666c6f77a265627a7a723158201f84fb1c5694b6c69375cf9f986265abdff1bcce29dae3b2c4e72179aa858cb864736f6c634300050e0032",
  "source": "pragma solidity ^0.5.0;\n\n/* --- Global --- */\nimport \"@openzeppelin/contracts/math/SafeMath.sol\";\n\n/* --- Local --- */\nimport \"./ATM.sol\";\nimport \"./Token.sol\";\n\ncontract Bank {\n    using SafeMath for uint256;\n\n    /* -------------------------------------- */\n    // Structs\n    /* -------------------------------------- */\n    struct atm {\n      string name;\n      address owner;\n    }\n\n    struct token {\n      address issuer;\n      string name;\n      string symbol;\n      uint256 supply;\n    }\n\n    /* -------------------------------------- */\n    // Variables\n    /* -------------------------------------- */\n    mapping (address => token) public tokens;\n    mapping (address => atm) public atms;\n\n    /* -------------------------------------- */\n    // Events\n    /* -------------------------------------- */\n    event ATMCreated(address atmAddress, address issuer);\n    event TokenCreated(address tokenAddress, address owner);\n\n    /* -------------------------------------- */\n    // Logic : Public : Functions\n    /* -------------------------------------- */\n    function deployATM(\n      string memory _name\n    ) \n    public returns (address) {\n        ATM a = new ATM(_name, msg.sender);\n        emit ATMCreated(address(a), msg.sender);\n        return address(a);\n    }\n\n    function deployToken(\n      string memory _name, \n      string memory _symbol, \n      uint8 _decimals, \n      uint256 _initialSupply\n    ) \n    public returns (address) {\n        Token t = new Token(_name, _symbol, _decimals, _initialSupply, msg.sender);\n        tokens[address(t)].issuer = msg.sender;\n        tokens[address(t)].name = _name;\n        tokens[address(t)].symbol = _symbol;\n        tokens[address(t)].supply = _initialSupply;\n        emit TokenCreated(address(t), msg.sender);\n        return address(t);\n    }\n\n    /* -------------------------------------- */\n    // Getters : Public : Functions\n    /* -------------------------------------- */\n\n}",
  "sourcePath": "/Users/admin/Documents/GitHub/horizin/shadow/bank/token/contracts/Bank.sol",
  "compiler": {
    "name": "solc",
    "version": "0.5.14+commit.01f1aaa4.Emscripten.clang"
  },
  "schemaVersion": "3.0.23",
  "updatedAt": "2020-03-28T22:59:47.301Z",
  "devdoc": {
    "methods": {}
  },
  "userdoc": {
    "methods": {}
  }
}