{
  "contractName": "OneSplit",
  "abi": [
    {
      "payable": true,
      "stateMutability": "payable",
      "type": "fallback"
    },
    {
      "constant": true,
      "inputs": [],
      "name": "ETH_ADDRESS",
      "outputs": [
        {
          "internalType": "contract IERC20",
          "name": "",
          "type": "address"
        }
      ],
      "payable": false,
      "stateMutability": "view",
      "type": "function"
    },
    {
      "constant": true,
      "inputs": [],
      "name": "FLAG_AAVE",
      "outputs": [
        {
          "internalType": "uint256",
          "name": "",
          "type": "uint256"
        }
      ],
      "payable": false,
      "stateMutability": "view",
      "type": "function"
    },
    {
      "constant": true,
      "inputs": [],
      "name": "FLAG_BANCOR",
      "outputs": [
        {
          "internalType": "uint256",
          "name": "",
          "type": "uint256"
        }
      ],
      "payable": false,
      "stateMutability": "view",
      "type": "function"
    },
    {
      "constant": true,
      "inputs": [],
      "name": "FLAG_CHAI",
      "outputs": [
        {
          "internalType": "uint256",
          "name": "",
          "type": "uint256"
        }
      ],
      "payable": false,
      "stateMutability": "view",
      "type": "function"
    },
    {
      "constant": true,
      "inputs": [],
      "name": "FLAG_COMPOUND",
      "outputs": [
        {
          "internalType": "uint256",
          "name": "",
          "type": "uint256"
        }
      ],
      "payable": false,
      "stateMutability": "view",
      "type": "function"
    },
    {
      "constant": true,
      "inputs": [],
      "name": "FLAG_FULCRUM",
      "outputs": [
        {
          "internalType": "uint256",
          "name": "",
          "type": "uint256"
        }
      ],
      "payable": false,
      "stateMutability": "view",
      "type": "function"
    },
    {
      "constant": true,
      "inputs": [],
      "name": "FLAG_KYBER",
      "outputs": [
        {
          "internalType": "uint256",
          "name": "",
          "type": "uint256"
        }
      ],
      "payable": false,
      "stateMutability": "view",
      "type": "function"
    },
    {
      "constant": true,
      "inputs": [],
      "name": "FLAG_OASIS",
      "outputs": [
        {
          "internalType": "uint256",
          "name": "",
          "type": "uint256"
        }
      ],
      "payable": false,
      "stateMutability": "view",
      "type": "function"
    },
    {
      "constant": true,
      "inputs": [],
      "name": "FLAG_UNISWAP",
      "outputs": [
        {
          "internalType": "uint256",
          "name": "",
          "type": "uint256"
        }
      ],
      "payable": false,
      "stateMutability": "view",
      "type": "function"
    },
    {
      "constant": true,
      "inputs": [],
      "name": "aave",
      "outputs": [
        {
          "internalType": "contract IAaveLendingPool",
          "name": "",
          "type": "address"
        }
      ],
      "payable": false,
      "stateMutability": "view",
      "type": "function"
    },
    {
      "constant": true,
      "inputs": [],
      "name": "bancorContractRegistry",
      "outputs": [
        {
          "internalType": "contract IBancorContractRegistry",
          "name": "",
          "type": "address"
        }
      ],
      "payable": false,
      "stateMutability": "view",
      "type": "function"
    },
    {
      "constant": true,
      "inputs": [],
      "name": "cETH",
      "outputs": [
        {
          "internalType": "contract ICompoundEther",
          "name": "",
          "type": "address"
        }
      ],
      "payable": false,
      "stateMutability": "view",
      "type": "function"
    },
    {
      "constant": true,
      "inputs": [],
      "name": "chai",
      "outputs": [
        {
          "internalType": "contract IChai",
          "name": "",
          "type": "address"
        }
      ],
      "payable": false,
      "stateMutability": "view",
      "type": "function"
    },
    {
      "constant": true,
      "inputs": [],
      "name": "compound",
      "outputs": [
        {
          "internalType": "contract ICompound",
          "name": "",
          "type": "address"
        }
      ],
      "payable": false,
      "stateMutability": "view",
      "type": "function"
    },
    {
      "constant": true,
      "inputs": [],
      "name": "dai",
      "outputs": [
        {
          "internalType": "contract IERC20",
          "name": "",
          "type": "address"
        }
      ],
      "payable": false,
      "stateMutability": "view",
      "type": "function"
    },
    {
      "constant": true,
      "inputs": [],
      "name": "kyberNetworkProxy",
      "outputs": [
        {
          "internalType": "contract IKyberNetworkProxy",
          "name": "",
          "type": "address"
        }
      ],
      "payable": false,
      "stateMutability": "view",
      "type": "function"
    },
    {
      "constant": true,
      "inputs": [],
      "name": "oasisExchange",
      "outputs": [
        {
          "internalType": "contract IOasisExchange",
          "name": "",
          "type": "address"
        }
      ],
      "payable": false,
      "stateMutability": "view",
      "type": "function"
    },
    {
      "constant": true,
      "inputs": [],
      "name": "uniswapFactory",
      "outputs": [
        {
          "internalType": "contract IUniswapFactory",
          "name": "",
          "type": "address"
        }
      ],
      "payable": false,
      "stateMutability": "view",
      "type": "function"
    },
    {
      "constant": true,
      "inputs": [
        {
          "internalType": "uint256",
          "name": "",
          "type": "uint256"
        }
      ],
      "name": "log",
      "outputs": [],
      "payable": false,
      "stateMutability": "view",
      "type": "function"
    },
    {
      "constant": true,
      "inputs": [
        {
          "internalType": "contract IERC20",
          "name": "fromToken",
          "type": "address"
        },
        {
          "internalType": "contract IERC20",
          "name": "toToken",
          "type": "address"
        },
        {
          "internalType": "uint256",
          "name": "amount",
          "type": "uint256"
        },
        {
          "internalType": "uint256",
          "name": "parts",
          "type": "uint256"
        },
        {
          "internalType": "uint256",
          "name": "disableFlags",
          "type": "uint256"
        }
      ],
      "name": "getAllRatesForDEX",
      "outputs": [
        {
          "internalType": "uint256[]",
          "name": "results",
          "type": "uint256[]"
        }
      ],
      "payable": false,
      "stateMutability": "view",
      "type": "function"
    },
    {
      "constant": true,
      "inputs": [
        {
          "internalType": "contract IERC20",
          "name": "fromToken",
          "type": "address"
        },
        {
          "internalType": "contract IERC20",
          "name": "toToken",
          "type": "address"
        },
        {
          "internalType": "uint256",
          "name": "amount",
          "type": "uint256"
        },
        {
          "internalType": "uint256",
          "name": "parts",
          "type": "uint256"
        },
        {
          "internalType": "uint256",
          "name": "disableFlags",
          "type": "uint256"
        }
      ],
      "name": "getExpectedReturn",
      "outputs": [
        {
          "internalType": "uint256",
          "name": "returnAmount",
          "type": "uint256"
        },
        {
          "internalType": "uint256[]",
          "name": "distribution",
          "type": "uint256[]"
        }
      ],
      "payable": false,
      "stateMutability": "view",
      "type": "function"
    },
    {
      "constant": false,
      "inputs": [
        {
          "internalType": "contract IERC20",
          "name": "fromToken",
          "type": "address"
        },
        {
          "internalType": "contract IERC20",
          "name": "toToken",
          "type": "address"
        },
        {
          "internalType": "uint256",
          "name": "amount",
          "type": "uint256"
        },
        {
          "internalType": "uint256",
          "name": "minReturn",
          "type": "uint256"
        },
        {
          "internalType": "uint256[]",
          "name": "distribution",
          "type": "uint256[]"
        },
        {
          "internalType": "uint256",
          "name": "disableFlags",
          "type": "uint256"
        }
      ],
      "name": "swap",
      "outputs": [],
      "payable": true,
      "stateMutability": "payable",
      "type": "function"
    },
    {
      "constant": false,
      "inputs": [
        {
          "internalType": "contract IERC20",
          "name": "fromToken",
          "type": "address"
        },
        {
          "internalType": "contract IERC20",
          "name": "toToken",
          "type": "address"
        },
        {
          "internalType": "uint256",
          "name": "amount",
          "type": "uint256"
        },
        {
          "internalType": "uint256",
          "name": "minReturn",
          "type": "uint256"
        },
        {
          "internalType": "uint256",
          "name": "parts",
          "type": "uint256"
        },
        {
          "internalType": "uint256",
          "name": "disableFlags",
          "type": "uint256"
        }
      ],
      "name": "goodSwap",
      "outputs": [],
      "payable": true,
      "stateMutability": "payable",
      "type": "function"
    },
    {
      "constant": true,
      "inputs": [
        {
          "internalType": "contract IERC20",
          "name": "fromToken",
          "type": "address"
        },
        {
          "internalType": "contract IERC20",
          "name": "toToken",
          "type": "address"
        },
        {
          "internalType": "uint256",
          "name": "amount",
          "type": "uint256"
        }
      ],
      "name": "calculateUniswapReturn",
      "outputs": [
        {
          "internalType": "uint256",
          "name": "",
          "type": "uint256"
        }
      ],
      "payable": false,
      "stateMutability": "view",
      "type": "function"
    },
    {
      "constant": true,
      "inputs": [
        {
          "internalType": "contract IERC20",
          "name": "fromToken",
          "type": "address"
        },
        {
          "internalType": "contract IERC20",
          "name": "toToken",
          "type": "address"
        },
        {
          "internalType": "uint256",
          "name": "amount",
          "type": "uint256"
        }
      ],
      "name": "calculateKyberReturn",
      "outputs": [
        {
          "internalType": "uint256",
          "name": "",
          "type": "uint256"
        }
      ],
      "payable": false,
      "stateMutability": "view",
      "type": "function"
    },
    {
      "constant": true,
      "inputs": [
        {
          "internalType": "contract IKyberNetworkContract",
          "name": "kyberNetworkContract",
          "type": "address"
        },
        {
          "internalType": "contract IERC20",
          "name": "fromToken",
          "type": "address"
        },
        {
          "internalType": "contract IERC20",
          "name": "toToken",
          "type": "address"
        },
        {
          "internalType": "uint256",
          "name": "amount",
          "type": "uint256"
        }
      ],
      "name": "_calculateKyberReturnWithEth",
      "outputs": [
        {
          "internalType": "uint256",
          "name": "",
          "type": "uint256"
        }
      ],
      "payable": false,
      "stateMutability": "view",
      "type": "function"
    },
    {
      "constant": true,
      "inputs": [
        {
          "internalType": "contract IERC20",
          "name": "fromToken",
          "type": "address"
        },
        {
          "internalType": "contract IERC20",
          "name": "toToken",
          "type": "address"
        },
        {
          "internalType": "uint256",
          "name": "amount",
          "type": "uint256"
        }
      ],
      "name": "calculateBancorReturn",
      "outputs": [
        {
          "internalType": "uint256",
          "name": "",
          "type": "uint256"
        }
      ],
      "payable": false,
      "stateMutability": "view",
      "type": "function"
    },
    {
      "constant": true,
      "inputs": [
        {
          "internalType": "contract IERC20",
          "name": "fromToken",
          "type": "address"
        },
        {
          "internalType": "contract IERC20",
          "name": "toToken",
          "type": "address"
        },
        {
          "internalType": "uint256",
          "name": "amount",
          "type": "uint256"
        }
      ],
      "name": "calculateOasisReturn",
      "outputs": [
        {
          "internalType": "uint256",
          "name": "",
          "type": "uint256"
        }
      ],
      "payable": false,
      "stateMutability": "view",
      "type": "function"
    },
    {
      "constant": true,
      "inputs": [
        {
          "internalType": "contract IERC20",
          "name": "token",
          "type": "address"
        }
      ],
      "name": "_isFulcrumToken",
      "outputs": [
        {
          "internalType": "contract IERC20",
          "name": "",
          "type": "address"
        }
      ],
      "payable": false,
      "stateMutability": "view",
      "type": "function"
    },
    {
      "constant": true,
      "inputs": [
        {
          "internalType": "contract IERC20",
          "name": "token",
          "type": "address"
        }
      ],
      "name": "_isAaveToken",
      "outputs": [
        {
          "internalType": "contract IERC20",
          "name": "",
          "type": "address"
        }
      ],
      "payable": false,
      "stateMutability": "view",
      "type": "function"
    }
  ],
  "bytecode": "0x6080604052600080546001600160a01b031990811673c02aaa39b223fe8d0a0e5c4f27ead9083c756cc21790915560018054821673c0829421c1d260bd3cb3e0f06cfe2d52db2ce315179055600280548216733d9819210a31b4961b30ef54be2aed79b9c9cd3b179055600380548216734ddc2d193948926d02f9b1fe9e1daa0718270ed5179055600480548216736b175474e89094c44da98b954eedeac495271d0f1790556005805482167306af07097c9eeb7fd685c692751d5c66db49c21517905560068054821673398ec7346dcd622edc5ae82352f02be94c62d11917905560078054821673818e6fecd516ecc3849daf6845e3ec868087b75517905560088054821673c0a47dfe034b400b47bdad5fecda2621de6c4d951790556009805482167352ae12abe5d8bd778bd5397f99ca900624cfadd4179055600a80548216736f0cd8c4f6f06eab664c7e3031909452b4b72861179055600b80549091167339755357759ce0d7f32dc8dc45414cca409ae24e17905534801561018457600080fd5b506150c4806101946000396000f3fe6080604052600436106101cd5760003560e01c80638bdb2afa116100f7578063d77366a411610095578063f4b9fa7511610064578063f4b9fa751461075b578063f64a9a4914610770578063f69e204614610785578063f82c50f11461079a576101cd565b8063d77366a4146105c8578063e2a7515e146105dd578063eb16df2a146106a7578063f484966b146106bc576101cd565b8063a1b4d011116100d1578063a1b4d01114610574578063a734f06e14610589578063b69d04561461059e578063ceb54115146105b3576101cd565b80638bdb2afa146105015780638c6c11f214610516578063955039451461052b576101cd565b80635cfcee281161016f57806372b6f1bf1161013e57806372b6f1bf14610461578063819faf7b1461049457806383366577146104a95780638a273858146104be576101cd565b80635cfcee281461037e57806364456efa146103935780636b9589aa146103d65780636f3a10531461041e576101cd565b80633c1a62dc116101ab5780633c1a62dc146102cc5780634037f967146102f35780634c914a4e146103265780635372d5481461033b576101cd565b8063085e2c5b146101dc57806312dea160146102865780631388b420146102b7575b333214156101da57600080fd5b005b3480156101e857600080fd5b5061022b600480360360a08110156101ff57600080fd5b506001600160a01b038135811691602081013590911690604081013590606081013590608001356107c4565b6040518083815260200180602001828103825283818151815260200191508051906020019060200280838360005b83811015610271578181015183820152602001610259565b50505050905001935050505060405180910390f35b34801561029257600080fd5b5061029b610f1d565b604080516001600160a01b039092168252519081900360200190f35b3480156102c357600080fd5b5061029b610f2c565b3480156102d857600080fd5b506102e1610f3b565b60408051918252519081900360200190f35b3480156102ff57600080fd5b5061029b6004803603602081101561031657600080fd5b50356001600160a01b0316610f40565b34801561033257600080fd5b506102e16112b8565b34801561034757600080fd5b506102e16004803603606081101561035e57600080fd5b506001600160a01b038135811691602081013590911690604001356112bd565b34801561038a57600080fd5b506102e161145e565b34801561039f57600080fd5b506102e1600480360360608110156103b657600080fd5b506001600160a01b03813581169160208101359091169060400135611463565b6101da600480360360c08110156103ec57600080fd5b506001600160a01b03813581169160208101359091169060408101359060608101359060808101359060a001356117de565b34801561042a57600080fd5b506102e16004803603606081101561044157600080fd5b506001600160a01b03813581169160208101359091169060400135611807565b34801561046d57600080fd5b5061029b6004803603602081101561048457600080fd5b50356001600160a01b0316611ba5565b3480156104a057600080fd5b5061029b611df5565b3480156104b557600080fd5b506102e1611e04565b3480156104ca57600080fd5b506102e1600480360360608110156104e157600080fd5b506001600160a01b03813581169160208101359091169060400135611e09565b34801561050d57600080fd5b5061029b611f9a565b34801561052257600080fd5b506102e1611fa9565b34801561053757600080fd5b506102e16004803603608081101561054e57600080fd5b506001600160a01b03813581169160208101358216916040820135169060600135611fae565b34801561058057600080fd5b5061029b6124d6565b34801561059557600080fd5b5061029b6124e5565b3480156105aa57600080fd5b5061029b6124f7565b3480156105bf57600080fd5b506102e1612506565b3480156105d457600080fd5b5061029b61250b565b6101da600480360360c08110156105f357600080fd5b6001600160a01b03823581169260208101359091169160408201359160608101359181019060a08101608082013564010000000081111561063357600080fd5b82018360208201111561064557600080fd5b8035906020019184602083028401116401000000008311171561066757600080fd5b919080806020026020016040519081016040528093929190818152602001838360200280828437600092019190915250929550509135925061251a915050565b3480156106b357600080fd5b506102e16125f7565b3480156106c857600080fd5b5061070b600480360360a08110156106df57600080fd5b506001600160a01b038135811691602081013590911690604081013590606081013590608001356125fc565b60408051602080825283518183015283519192839290830191858101910280838360005b8381101561074757818101518382015260200161072f565b505050509050019250505060405180910390f35b34801561076757600080fd5b5061029b612684565b34801561077c57600080fd5b506102e1612693565b34801561079157600080fd5b5061029b612698565b3480156107a657600080fd5b506101da600480360360208110156107bd57600080fd5b50356126a7565b60408051600480825260a082019092526000916060919060208201608080388339019050509050856001600160a01b0316876001600160a01b0316141561080d57849150610f13565b61081e83601063ffffffff6126aa16565b156109c65761082c876126b5565b156108f857600061083c886127e8565b90506001600160a01b03808216146108f6576000886001600160a01b031663182df0f56040518163ffffffff1660e01b815260040160206040518083038186803b15801561088957600080fd5b505afa15801561089d573d6000803e3d6000fd5b505050506040513d60208110156108b357600080fd5b505190506108eb82896108e4670de0b6b3a76400006108d88c8763ffffffff61290f16565b9063ffffffff61296816565b89896107c4565b935093505050610f13565b505b610901866126b5565b156109c6576000610911876127e8565b90506001600160a01b03808216146109c4576000876001600160a01b031663182df0f56040518163ffffffff1660e01b815260040160206040518083038186803b15801561095e57600080fd5b505afa158015610972573d6000803e3d6000fd5b505050506040513d602081101561098857600080fd5b5051905061099989838989896107c4565b90945092506109ba816108d886670de0b6b3a764000063ffffffff61290f16565b9350610f13915050565b505b6109d783602063ffffffff6126aa16565b15610a8c5760006109e788610f40565b90506001600160a01b0380821614610a34576000886001600160a01b0316637ff9b5966040518163ffffffff1660e01b815260040160206040518083038186803b15801561088957600080fd5b610a3d87610f40565b90506001600160a01b0380821614610a8a576000876001600160a01b0316637ff9b5966040518163ffffffff1660e01b815260040160206040518083038186803b15801561095e57600080fd5b505b610a9d83604063ffffffff6126aa16565b15610b49576005546001600160a01b0388811691161415610af157600454600554610ae8916001600160a01b03908116918991610ae191168963ffffffff6129aa16565b87876107c4565b91509150610f13565b6005546001600160a01b0387811691161415610b4957600454610b219088906001600160a01b03168787876107c4565b6005549193509150610b42906001600160a01b03168363ffffffff612abe16565b9150610f13565b610b5a83608063ffffffff6126aa16565b15610bbd576000610b6a88611ba5565b90506001600160a01b0380821614610b9357610b8981888888886107c4565b9250925050610f13565b610b9c87611ba5565b90506001600160a01b0380821614610bbb57610b8988828888886107c4565b505b610bc5614f42565b604080516080810190915280610be286600163ffffffff612bd216565b610bee57611463610bf2565b612bd85b67ffffffffffffffff168152602001610c1286600263ffffffff612bd216565b610c1e576112bd610c22565b612bd85b67ffffffffffffffff168152602001610c4286600463ffffffff612bd216565b610c4e57611807610c52565b612bd85b67ffffffffffffffff168152602001610c7286600863ffffffff612bd216565b610c7e57611e09610c82565b612bd85b67ffffffffffffffff1690529050610c98614f6a565b610ca0614f6a565b60005b6004811015610d7857610cda8b8b610cc18c8c63ffffffff61296816565b878560048110610ccd57fe5b602002015163ffffffff16565b838260048110610ce657fe5b60200201523063f82c50f1848360048110610cfd57fe5b60200201516040518263ffffffff1660e01b81526004018082815260200191505060006040518083038186803b158015610d3657600080fd5b505afa158015610d4a573d6000803e3d6000fd5b50505050828160048110610d5a57fe5b6020020151828260048110610d6b57fe5b6020020152600101610ca3565b5060005b87811015610f0e57600060015b6004811015610dc657848260048110610d9e57fe5b6020020151858260048110610daf57fe5b60200201511115610dbe578091505b600101610d89565b50610de8848260048110610dd657fe5b6020020151889063ffffffff612be116565b9650858181518110610df657fe5b6020026020010180518091906001018152505060008a905089836001011015610f04576000610e598e8e610e4d8e6108d88d8981518110610e3357fe5b60200260200101516001018861290f90919063ffffffff16565b8a8760048110610ccd57fe5b9050610e7c858460048110610e6a57fe5b6020020151829063ffffffff612c3b16565b868460048110610e8857fe5b60200201523063f82c50f1878560048110610e9f57fe5b60200201516040518263ffffffff1660e01b81526004018082815260200191505060006040518083038186803b158015610ed857600080fd5b505afa158015610eec573d6000803e3d6000fd5b5050505080858460048110610efd57fe5b6020020152505b5050600101610d7c565b505050505b9550959350505050565b6009546001600160a01b031681565b600b546001600160a01b031681565b602081565b6000610f54826001600160a01b0316612c7d565b15610f6257506000196112b3565b60408051600481526024810182526020810180516001600160e01b03166306fdde0360e01b178152915181516000936060936001600160a01b0388169361138893919290918291908083835b60208310610fcd5780518252601f199092019160209182019101610fae565b6001836020036101000a0380198251168184511680821785525050505050509050019150506000604051808303818686fa925050503d806000811461102e576040519150601f19603f3d011682016040523d82523d6000602084013e611033565b606091505b50915091508161104957600019925050506112b3565b6000805b60078351038110156111a25782816000018151811061106857fe5b6020910101516001600160f81b031916602360f91b1480156110ab575082816001018151811061109457fe5b6020910101516001600160f81b031916607560f81b145b80156110d857508281600201815181106110c157fe5b6020910101516001600160f81b031916601b60fa1b145b801561110557508281600301815181106110ee57fe5b6020910101516001600160f81b031916606360f81b145b8015611132575082816004018151811061111b57fe5b6020910101516001600160f81b031916603960f91b145b801561115f575082816005018151811061114857fe5b6020910101516001600160f81b031916607560f81b145b801561118c575082816006018151811061117557fe5b6020910101516001600160f81b031916606d60f81b145b1561119a57600191506111a2565b60010161104d565b50806111b55760001993505050506112b3565b60408051600481526024810182526020810180516001600160e01b031663797bf38560e01b178152915181516001600160a01b038916936113889392918291908083835b602083106112185780518252601f1990920191602091820191016111f9565b6001836020036101000a0380198251168184511680821785525050505050509050019150506000604051808303818686fa925050503d8060008114611279576040519150601f19603f3d011682016040523d82523d6000602084013e61127e565b606091505b509093509150826112965760001993505050506112b3565b8180602001905160208110156112ab57600080fd5b505193505050505b919050565b604081565b60075460408051600481526024810182526020810180516001600160e01b0316634f61ff8b60e01b1781529151815160009485946060946001600160a01b03909216936108fc93909182918083835b6020831061132b5780518252601f19909201916020918201910161130c565b6001836020036101000a0380198251168184511680821785525050505050509050019150506000604051808303818686fa925050503d806000811461138c576040519150601f19603f3d011682016040523d82523d6000602084013e611391565b606091505b5091509150816113a657600092505050611457565b60008180602001905160208110156113bd57600080fd5b505190506113d36001600160a01b038816612c7d565b806113eb57506113eb866001600160a01b0316612c7d565b15611406576113fc81888888611fae565b9350505050611457565b6000611422828960008051602061501083398151915289611fae565b905080611436576000945050505050611457565b611450826000805160206150108339815191528984611fae565b9450505050505b9392505050565b601081565b6000816114786001600160a01b038616612c7d565b61161e57600854604080516303795fb160e11b81526001600160a01b038881166004830152915160009392909216916306f2bf6291602480820192602092909190829003018186803b1580156114cd57600080fd5b505afa1580156114e1573d6000803e3d6000fd5b505050506040513d60208110156114f757600080fd5b505190506001600160a01b0381161561161c5760408051602480820185905282518083039091018152604490910182526020810180516001600160e01b03166395b68fe760e01b178152915181516000936060936001600160a01b0387169362030d4093919290918291908083835b602083106115855780518252601f199092019160209182019101611566565b6001836020036101000a0380198251168184511680821785525050505050509050019150506000604051808303818686fa925050503d80600081146115e6576040519150601f19603f3d011682016040523d82523d6000602084013e6115eb565b606091505b509150915081156116145780806020019051602081101561160b57600080fd5b50519350611619565b600093505b50505b505b611630846001600160a01b0316612c7d565b6117d657600854604080516303795fb160e11b81526001600160a01b038781166004830152915160009392909216916306f2bf6291602480820192602092909190829003018186803b15801561168557600080fd5b505afa158015611699573d6000803e3d6000fd5b505050506040513d60208110156116af57600080fd5b505190506001600160a01b038116156117d45760408051602480820185905282518083039091018152604490910182526020810180516001600160e01b031663cd7724c360e01b178152915181516000936060936001600160a01b0387169362030d4093919290918291908083835b6020831061173d5780518252601f19909201916020918201910161171e565b6001836020036101000a0380198251168184511680821785525050505050509050019150506000604051808303818686fa925050503d806000811461179e576040519150601f19603f3d011682016040523d82523d6000602084013e6117a3565b606091505b509150915081156117cc578080602001905160208110156117c357600080fd5b505193506117d1565b600093505b50505b505b949350505050565b60606117ed87878786866107c4565b9150506117fe87878787858761251a565b50505050505050565b60095460408051632ecd14d360e21b81526c42616e636f724e6574776f726b60981b6004820152905160009283926001600160a01b039091169163bb34534c91602480820192602092909190829003018186803b15801561186757600080fd5b505afa15801561187b573d6000803e3d6000fd5b505050506040513d602081101561189157600080fd5b5051600a549091506060906001600160a01b03908116906375e1cc82906118b9908916612c7d565b6118c357876118d0565b6001546001600160a01b03165b6118e2886001600160a01b0316612c7d565b6118ec57876118f9565b6001546001600160a01b03165b6040518363ffffffff1660e01b815260040180836001600160a01b03166001600160a01b03168152602001826001600160a01b03166001600160a01b031681526020019250505060006040518083038186803b15801561195857600080fd5b505afa15801561196c573d6000803e3d6000fd5b505050506040513d6000823e601f3d908101601f19168201604052602081101561199557600080fd5b81019080805160405193929190846401000000008211156119b557600080fd5b9083019060208201858111156119ca57600080fd5b82518660208202830111640100000000821117156119e757600080fd5b82525081516020918201928201910280838360005b83811015611a145781810151838201526020016119fc565b50505050905001604052505050905060006060836001600160a01b031662030d40856001600160a01b0316630c8496cc905060e01b85896040516024018080602001838152602001828103825284818151815260200191508051906020019060200280838360005b83811015611a94578181015183820152602001611a7c565b505050509050019350505050604051602081830303815290604052906001600160e01b0319166020820180516001600160e01b0383818316178352505050506040518082805190602001908083835b60208310611b025780518252601f199092019160209182019101611ae3565b6001836020036101000a0380198251168184511680821785525050505050509050019150506000604051808303818686fa925050503d8060008114611b63576040519150601f19603f3d011682016040523d82523d6000602084013e611b68565b606091505b509150915081611b7f576000945050505050611457565b6000818060200190516040811015611b9657600080fd5b50519998505050505050505050565b6000611bb9826001600160a01b0316612c7d565b15611bc757506000196112b3565b60408051600481526024810182526020810180516001600160e01b03166306fdde0360e01b178152915181516000936060936001600160a01b0388169361138893919290918291908083835b60208310611c325780518252601f199092019160209182019101611c13565b6001836020036101000a0380198251168184511680821785525050505050509050019150506000604051808303818686fa925050503d8060008114611c93576040519150601f19603f3d011682016040523d82523d6000602084013e611c98565b606091505b509150915081611cae57600019925050506112b3565b6000805b6004835103811015611d8057828160000181518110611ccd57fe5b6020910101516001600160f81b031916604160f81b148015611d105750828160010181518110611cf957fe5b6020910101516001600160f81b031916606160f81b145b8015611d3d5750828160020181518110611d2657fe5b6020910101516001600160f81b031916603b60f91b145b8015611d6a5750828160030181518110611d5357fe5b6020910101516001600160f81b031916606560f81b145b15611d785760019150611d80565b600101611cb2565b5080611d935760001993505050506112b3565b60408051600481526024810182526020810180516001600160e01b0316632274683f60e21b178152915181516001600160a01b03891693611388939291829190808383602083106112185780518252601f1990920191602091820191016111f9565b6006546001600160a01b031681565b608081565b600b5460009081906060906001600160a01b03908116906207a12090630a2513a960e11b90611e39908916612c7d565b611e435787611e50565b6000546001600160a01b03165b611e628a6001600160a01b0316612c7d565b611e6c5789611e79565b6000546001600160a01b03165b604080516001600160a01b03938416602482015291909216604482015260648082018a905282518083039091018152608490910182526020810180516001600160e01b03166001600160e01b031990941693909317835290518151919290918291908083835b60208310611efe5780518252601f199092019160209182019101611edf565b6001836020036101000a0380198251168184511680821785525050505050509050019150506000604051808303818686fa925050503d8060008114611f5f576040519150601f19603f3d011682016040523d82523d6000602084013e611f64565b606091505b509150915081611f7957600092505050611457565b808060200190516020811015611f8e57600080fd5b50519695505050505050565b6008546001600160a01b031681565b600881565b60008060606001600160a01b038088169062030d4090630611aecb60e11b90611fd8908a16612c7d565b611fe25788611ff2565b6000805160206150108339815191525b612004896001600160a01b0316612c7d565b61200e578861201e565b6000805160206150108339815191525b604080516001600160a01b0393841660248201529190921660448201526064810189905260016084808301919091528251808303909101815260a490910182526020810180516001600160e01b03166001600160e01b031990941693909317835290518151919290918291908083835b602083106120ad5780518252601f19909201916020918201910161208e565b6001836020036101000a0380198251168184511680821785525050505050509050019150506000604051808303818686fa925050503d806000811461210e576040519150601f19603f3d011682016040523d82523d6000602084013e612113565b606091505b509150915081612128576000925050506117d6565b60008082806020019051604081101561214057600080fd5b50805160209091015190925090507354a4a1167b004b004520c605e3f01906f683413d6001600160a01b0383161480612195575073cf1394c5e2e879969fdb1f464ce1487147863dcb6001600160a01b038316145b806121bc575073053aa84fcc676113a57e0ebb0bd1913839874be46001600160a01b038316145b156121ce5760009450505050506117d6565b60408051600481526024810182526020810180516001600160e01b03166345ed957d60e11b178152915181516001600160a01b038616936108fc9392918291908083835b602083106122315780518252601f199092019160209182019101612212565b6001836020036101000a0380198251168184511680821785525050505050509050019150506000604051808303818686fa925050503d8060008114612292576040519150601f19603f3d011682016040523d82523d6000602084013e612297565b606091505b509094505083156122af5760009450505050506117d6565b60408051600481526024810182526020810180516001600160e01b0316630dad878f60e21b178152915181516001600160a01b038616936108fc9392918291908083835b602083106123125780518252601f1990920191602091820191016122f3565b6001836020036101000a0380198251168184511680821785525050505050509050019150506000604051808303818686fa925050503d8060008114612373576040519150601f19603f3d011682016040523d82523d6000602084013e612378565b606091505b509094505083156123905760009450505050506117d6565b60408051600481526024810182526020810180516001600160e01b0316634d21dff760e01b178152915181516001600160a01b038616936108fc9392918291908083835b602083106123f35780518252601f1990920191602091820191016123d4565b6001836020036101000a0380198251168184511680821785525050505050509050019150506000604051808303818686fa925050503d8060008114612454576040519150601f19603f3d011682016040523d82523d6000602084013e612459565b606091505b509094505083156124715760009450505050506117d6565b6124c9670de0b6b3a76400006108d86124928b6001600160a01b0316612cb0565b600a0a6108d86124aa8c6001600160a01b0316612cb0565b600a0a6124bd878d63ffffffff61290f16565b9063ffffffff61290f16565b9998505050505050505050565b6003546001600160a01b031681565b60008051602061501083398151915281565b6005546001600160a01b031681565b600281565b6007546001600160a01b031681565b6125356001600160a01b03871633308763ffffffff612ea516565b6125428686868585612ff1565b600061255d6001600160a01b0387163063ffffffff613a9316565b90508381101561259e5760405162461bcd60e51b8152600401808060200182810382526035815260200180614f8b6035913960400191505060405180910390fd5b6125b86001600160a01b038716338363ffffffff613b6016565b506125ed336125d66001600160a01b038a163063ffffffff613a9316565b6001600160a01b038a16919063ffffffff613b6016565b5050505050505050565b600181565b606082604051908082528060200260200182016040528015612628578160200160208202803883390190505b50905060005b8381101561267a5761265a8787612652876108d88a6001880163ffffffff61290f16565b6001876107c4565b5082828151811061266757fe5b602090810291909101015260010161262e565b5095945050505050565b6004546001600160a01b031681565b600481565b6002546001600160a01b031681565b50565b818116155b92915050565b6003546000906001600160a01b03838116911614156126d6575060016112b3565b600254604080516001600160a01b0385811660248084019190915283518084039091018152604490920183526020820180516001600160e01b0316638e8f294b60e01b17815292518251600095606095931693611388939092918291908083835b602083106127565780518252601f199092019160209182019101612737565b6001836020036101000a0380198251168184511680821785525050505050509050019150506000604051808303818686fa925050503d80600081146127b7576040519150601f19603f3d011682016040523d82523d6000602084013e6127bc565b606091505b5091509150816127d1576000925050506112b3565b60008180602001905160408110156112ab57600080fd5b6003546000906001600160a01b0383811691161415612809575060006112b3565b60408051600481526024810182526020810180516001600160e01b0316636f307dc360e01b178152915181516000936060936001600160a01b0388169361138893919290918291908083835b602083106128745780518252601f199092019160209182019101612855565b6001836020036101000a0380198251168184511680821785525050505050509050019150506000604051808303818686fa925050503d80600081146128d5576040519150601f19603f3d011682016040523d82523d6000602084013e6128da565b606091505b5091509150816128f057600019925050506112b3565b80806020019051602081101561290557600080fd5b5051949350505050565b60008261291e575060006126af565b8282028284828161292b57fe5b04146114575760405162461bcd60e51b8152600401808060200182810382526021815260200180614fef6021913960400191505060405180910390fd5b600061145783836040518060400160405280601a81526020017f536166654d6174683a206469766973696f6e206279207a65726f000000000000815250613bfe565b60008073197e90f9fad81970ba7976f33cbd77088e5d7cf76001600160a01b03166320aba08b6040518163ffffffff1660e01b815260040160206040518083038186803b1580156129fa57600080fd5b505afa158015612a0e573d6000803e3d6000fd5b505050506040513d6020811015612a2457600080fd5b50514211612aaa5773197e90f9fad81970ba7976f33cbd77088e5d7cf76001600160a01b031663c92aecc46040518163ffffffff1660e01b815260040160206040518083038186803b158015612a7957600080fd5b505afa158015612a8d573d6000803e3d6000fd5b505050506040513d6020811015612aa357600080fd5b5051612ab2565b612ab2613ca0565b90506117d68184613e2f565b60008073197e90f9fad81970ba7976f33cbd77088e5d7cf76001600160a01b03166320aba08b6040518163ffffffff1660e01b815260040160206040518083038186803b158015612b0e57600080fd5b505afa158015612b22573d6000803e3d6000fd5b505050506040513d6020811015612b3857600080fd5b50514211612bbe5773197e90f9fad81970ba7976f33cbd77088e5d7cf76001600160a01b031663c92aecc46040518163ffffffff1660e01b815260040160206040518083038186803b158015612b8d57600080fd5b505afa158015612ba1573d6000803e3d6000fd5b505050506040513d6020811015612bb757600080fd5b5051612bc6565b612bc6613ca0565b90506117d68382613e57565b16151590565b60009392505050565b600082820183811015611457576040805162461bcd60e51b815260206004820152601b60248201527f536166654d6174683a206164646974696f6e206f766572666c6f770000000000604482015290519081900360640190fd5b600061145783836040518060400160405280601e81526020017f536166654d6174683a207375627472616374696f6e206f766572666c6f770000815250613e70565b60006001600160a01b03821615806126af57506001600160a01b0382166000805160206150108339815191521492915050565b60006001600160a01b0382161580612cde57506001600160a01b038216600080516020615010833981519152145b15612ceb575060126112b3565b60408051600481526024810182526020810180516001600160e01b031663313ce56760e01b178152915181516000936060936001600160a01b0388169361138893919290918291908083835b60208310612d565780518252601f199092019160209182019101612d37565b6001836020036101000a0380198251168184511680821785525050505050509050019150506000604051808303818686fa925050503d8060008114612db7576040519150601f19603f3d011682016040523d82523d6000602084013e612dbc565b606091505b509150915081612e965760408051600481526024810182526020810180516001600160e01b0316632e0f262560e01b178152915181516001600160a01b038816936113889392918291908083835b60208310612e295780518252601f199092019160209182019101612e0a565b6001836020036101000a0380198251168184511680821785525050505050509050019150506000604051808303818686fa925050503d8060008114612e8a576040519150601f19603f3d011682016040523d82523d6000602084013e612e8f565b606091505b5090925090505b816128f0576012949350505050565b80612eaf57612feb565b6001600160a01b0384161580612edb57506001600160a01b038416600080516020615010833981519152145b15612fd0576001600160a01b03831633148015612ef85750803410155b612f3d576040805162461bcd60e51b81526020600482015260116024820152706d73672e76616c7565206973207a65726f60781b604482015290519081900360640190fd5b6001600160a01b0382163014612f85576040516001600160a01b0383169082156108fc029083906000818181858888f19350505050158015612f83573d6000803e3d6000fd5b505b80341115612fcb57336108fc612fa1348463ffffffff612c3b16565b6040518115909202916000818181858888f19350505050158015612fc9573d6000803e3d6000fd5b505b612feb565b612feb6001600160a01b03851684848463ffffffff613eca16565b50505050565b836001600160a01b0316856001600160a01b0316141561301057613a8c565b61302181601063ffffffff6126aa16565b156132325761302f856126b5565b156130e557600061303f866127e8565b9050856001600160a01b031663db006a75856040518263ffffffff1660e01b815260040180828152602001915050602060405180830381600087803b15801561308757600080fd5b505af115801561309b573d6000803e3d6000fd5b505050506040513d60208110156130b157600080fd5b50600090506130cf6001600160a01b0383163063ffffffff613a9316565b90506130de8287838787612ff1565b5050613a8c565b6130ee846126b5565b156132325760006130fe856127e8565b905061310d8682868686612ff1565b60006131286001600160a01b0383163063ffffffff613a9316565b905061313c826001600160a01b0316612c7d565b156131af57600360009054906101000a90046001600160a01b03166001600160a01b0316631249c58b826040518263ffffffff1660e01b81526004016000604051808303818588803b15801561319157600080fd5b505af11580156131a5573d6000803e3d6000fd5b50505050506130de565b6131b98287613f24565b856001600160a01b031663a0712d68826040518263ffffffff1660e01b815260040180828152602001915050602060405180830381600087803b1580156131ff57600080fd5b505af1158015613213573d6000803e3d6000fd5b505050506040513d602081101561322957600080fd5b50505050613a8c565b61324381602063ffffffff6126aa16565b1561349b57600061325386610f40565b90506001600160a01b038082161461336757613277816001600160a01b0316612c7d565b156132fd576040805163081a6b2560e41b81523060048201526024810186905290516001600160a01b038816916381a6b2509160448083019260209291908290030181600087803b1580156132cb57600080fd5b505af11580156132df573d6000803e3d6000fd5b505050506040513d60208110156132f557600080fd5b5061334c9050565b60408051632770a7eb60e21b81523060048201526024810186905290516001600160a01b03881691639dc29fac9160448083019260209291908290030181600087803b15801561308757600080fd5b60006130cf6001600160a01b0383163063ffffffff613a9316565b61337085610f40565b90506001600160a01b03808216146134995761338f8682868686612ff1565b60006133aa6001600160a01b0383163063ffffffff613a9316565b90506133be826001600160a01b0316612c7d565b156134405760408051638f6ede1f60e01b815230600482015290516001600160a01b03881691638f6ede1f91849160248082019260209290919082900301818588803b15801561340d57600080fd5b505af1158015613421573d6000803e3d6000fd5b50505050506040513d602081101561343857600080fd5b506130de9050565b61344a8287613f24565b604080516340c10f1960e01b81523060048201526024810183905290516001600160a01b038816916340c10f199160448083019260209291908290030181600087803b1580156131ff57600080fd5b505b6134ac81604063ffffffff6126aa16565b156136f1576005546001600160a01b03868116911614156135bf576005546040805163ef693bed60e01b81523060048201526024810186905290516001600160a01b039092169163ef693bed9160448082019260009290919082900301818387803b15801561351a57600080fd5b505af115801561352e573d6000803e3d6000fd5b505060048054604080516370a0823160e01b81523093810193909352516135ba94506001600160a01b039091169250879183916370a0823191602480820192602092909190829003018186803b15801561358757600080fd5b505afa15801561359b573d6000803e3d6000fd5b505050506040513d60208110156135b157600080fd5b50518585612ff1565b613a8c565b6005546001600160a01b03858116911614156136f1576004546135ef9086906001600160a01b0316858585612ff1565b60045460055461360b916001600160a01b039081169116613f24565b60055460048054604080516370a0823160e01b81523093810184905290516001600160a01b0394851694633b4da69f949316916370a08231916024808301926020929190829003018186803b15801561366357600080fd5b505afa158015613677573d6000803e3d6000fd5b505050506040513d602081101561368d57600080fd5b5051604080516001600160e01b031960e086901b1681526001600160a01b039093166004840152602483019190915251604480830192600092919082900301818387803b1580156136dd57600080fd5b505af1158015613229573d6000803e3d6000fd5b61370281608063ffffffff6126aa16565b1561392d57600061371286611ba5565b90506001600160a01b038082161461379557856001600160a01b031663db006a75856040518263ffffffff1660e01b815260040180828152602001915050600060405180830381600087803b15801561376a57600080fd5b505af115801561377e573d6000803e3d6000fd5b5050505061378f8186868686612ff1565b50613a8c565b61379e85611ba5565b90506001600160a01b038082161461392b576137bd8682868686612ff1565b60006137d86001600160a01b0383163063ffffffff613a9316565b905061385d82600660009054906101000a90046001600160a01b03166001600160a01b031663f2f4eb266040518163ffffffff1660e01b815260040160206040518083038186803b15801561382c57600080fd5b505afa158015613840573d6000803e3d6000fd5b505050506040513d602081101561385657600080fd5b5051613f24565b6006546001600160a01b039081169063d2d0e0669061387d908516612c7d565b61388857600061388a565b825b61389c856001600160a01b0316612c7d565b6138a657846138b6565b6000805160206150108339815191525b604080516001600160e01b031960e086901b1681526001600160a01b0390921660048301526024820186905261044d604483015251606480830192600092919082900301818588803b15801561390b57600080fd5b505af115801561391f573d6000803e3d6000fd5b50505050505050613a8c565b505b613935614f42565b5060408051608081018252613fdd815261423360208201526143969181019190915261481e6060820152600080805b60048110156139bd57600086828151811061397b57fe5b602002602001015111156139b5576139af86828151811061399857fe5b602002602001015184612be190919063ffffffff16565b92508091505b600101613964565b50600082116139fd5760405162461bcd60e51b815260040180806020018281038252602f815260200180614fc0602f913960400191505060405180910390fd5b8560005b6004811015613a8657868181518110613a1657fe5b602002602001015160001415613a2b57613a7e565b6000613a57856108d88a8581518110613a4057fe5b60200260200101518c61290f90919063ffffffff16565b905083821415613a645750815b8083039250613a7b8b8b83898660048110610ccd57fe5b50505b600101613a01565b50505050505b5050505050565b60006001600160a01b0383161580613ac157506001600160a01b038316600080516020615010833981519152145b15613ad757506001600160a01b038116316126af565b826001600160a01b03166370a08231836040518263ffffffff1660e01b815260040180826001600160a01b03166001600160a01b0316815260200191505060206040518083038186803b158015613b2d57600080fd5b505afa158015613b41573d6000803e3d6000fd5b505050506040513d6020811015613b5757600080fd5b505190506126af565b600081613b6f57506001611457565b6001600160a01b0384161580613b9b57506001600160a01b038416600080516020615010833981519152145b15613bdc576040516001600160a01b0384169083156108fc029084906000818181858888f19350505050158015613bd6573d6000803e3d6000fd5b50611457565b613bf66001600160a01b038516848463ffffffff614ab816565b506001611457565b60008183613c8a5760405162461bcd60e51b81526004018080602001828103825283818151815260200191508051906020019080838360005b83811015613c4f578181015183820152602001613c37565b50505050905090810190601f168015613c7c5780820380516001836020036101000a031916815260200191505b509250505060405180910390fd5b506000838581613c9657fe5b0495945050505050565b6000613e2a613dac73197e90f9fad81970ba7976f33cbd77088e5d7cf76001600160a01b031663487bf0826040518163ffffffff1660e01b815260040160206040518083038186803b158015613cf557600080fd5b505afa158015613d09573d6000803e3d6000fd5b505050506040513d6020811015613d1f57600080fd5b5051604080516320aba08b60e01b8152905173197e90f9fad81970ba7976f33cbd77088e5d7cf7916320aba08b916004808301926020929190829003018186803b158015613d6c57600080fd5b505afa158015613d80573d6000803e3d6000fd5b505050506040513d6020811015613d9657600080fd5b505142036b033b2e3c9fd0803ce8000000614b0f565b73197e90f9fad81970ba7976f33cbd77088e5d7cf76001600160a01b031663c92aecc46040518163ffffffff1660e01b815260040160206040518083038186803b158015613df957600080fd5b505afa158015613e0d573d6000803e3d6000fd5b505050506040513d6020811015613e2357600080fd5b5051613e2f565b905090565b60006b033b2e3c9fd0803ce8000000613e488484614bce565b81613e4f57fe5b049392505050565b600081613e48846b033b2e3c9fd0803ce8000000614bce565b60008184841115613ec25760405162461bcd60e51b8152602060048201818152835160248401528351909283926044909101919085019080838360008315613c4f578181015183820152602001613c37565b505050900390565b604080516001600160a01b0385811660248301528416604482015260648082018490528251808303909101815260849091019091526020810180516001600160e01b03166323b872dd60e01b179052612feb908590614bf2565b613f36826001600160a01b0316612c7d565b613fd95760408051636eb1769f60e11b81523060048201526001600160a01b038381166024830152915160ff9285169163dd62ed3e916044808301926020929190829003018186803b158015613f8b57600080fd5b505afa158015613f9f573d6000803e3d6000fd5b505050506040513d6020811015613fb557600080fd5b5051901c613fd957613fd96001600160a01b0383168260001963ffffffff614daa16565b5050565b600081613ff26001600160a01b038616612c7d565b61411557600854604080516303795fb160e11b81526001600160a01b038881166004830152915160009392909216916306f2bf6291602480820192602092909190829003018186803b15801561404757600080fd5b505afa15801561405b573d6000803e3d6000fd5b505050506040513d602081101561407157600080fd5b505190506001600160a01b038116156141135761408e8682613f24565b604080516395e3c50b60e01b8152600481018490526001602482015242604482015290516001600160a01b038316916395e3c50b9160648083019260209291908290030181600087803b1580156140e457600080fd5b505af11580156140f8573d6000803e3d6000fd5b505050506040513d602081101561410e57600080fd5b505191505b505b614127846001600160a01b0316612c7d565b6117d657600854604080516303795fb160e11b81526001600160a01b038781166004830152915160009392909216916306f2bf6291602480820192602092909190829003018186803b15801561417c57600080fd5b505afa158015614190573d6000803e3d6000fd5b505050506040513d60208110156141a657600080fd5b505190506001600160a01b038116156117d457806001600160a01b031663f39b5b9b836001426040518463ffffffff1660e01b815260040180838152602001828152602001925050506020604051808303818588803b15801561420857600080fd5b505af115801561421c573d6000803e3d6000fd5b50505050506040513d6020811015611f8e57600080fd5b60075460009061424d9085906001600160a01b0316613f24565b6007546001600160a01b03908116906329589f619061426d908716612c7d565b61427857600061427a565b835b61428c876001600160a01b0316612c7d565b61429657866142a6565b6000805160206150108339815191525b856142b9886001600160a01b0316612c7d565b6142c357876142d3565b6000805160206150108339815191525b604080516001600160e01b031960e088901b1681526001600160a01b039485166004820152602481019390935292166044820152306064820152600160ff1b6084820152600060a48201819052734d37f28d2db99e8d35a6c725a5f1749a085850a360c483015261010060e4830152610104820152905161014480830192602092919082900301818588803b15801561436b57600080fd5b505af115801561437f573d6000803e3d6000fd5b50505050506040513d602081101561290557600080fd5b60006143aa846001600160a01b0316612c7d565b1561441957600160009054906101000a90046001600160a01b03166001600160a01b031663d0e30db0836040518263ffffffff1660e01b81526004016000604051808303818588803b1580156143ff57600080fd5b505af1158015614413573d6000803e3d6000fd5b50505050505b60095460408051632ecd14d360e21b81526c42616e636f724e6574776f726b60981b600482015290516000926001600160a01b03169163bb34534c916024808301926020929190829003018186803b15801561447457600080fd5b505afa158015614488573d6000803e3d6000fd5b505050506040513d602081101561449e57600080fd5b5051600a549091506060906001600160a01b03908116906375e1cc82906144c6908916612c7d565b6144d057876144dd565b6001546001600160a01b03165b6144ef886001600160a01b0316612c7d565b6144f95787614506565b6001546001600160a01b03165b6040518363ffffffff1660e01b815260040180836001600160a01b03166001600160a01b03168152602001826001600160a01b03166001600160a01b031681526020019250505060006040518083038186803b15801561456557600080fd5b505afa158015614579573d6000803e3d6000fd5b505050506040513d6000823e601f3d908101601f1916820160405260208110156145a257600080fd5b81019080805160405193929190846401000000008211156145c257600080fd5b9083019060208201858111156145d757600080fd5b82518660208202830111640100000000821117156145f457600080fd5b82525081516020918201928201910280838360005b83811015614621578181015183820152602001614609565b505050509050016040525050509050614662614645876001600160a01b0316612c7d565b61464f578661465c565b6001546001600160a01b03165b83613f24565b6000826001600160a01b031663c7ba24bc838760016040518463ffffffff1660e01b81526004018080602001848152602001838152602001828103825285818151815260200191508051906020019060200280838360005b838110156146d25781810151838201526020016146ba565b50505050905001945050505050602060405180830381600087803b1580156146f957600080fd5b505af115801561470d573d6000803e3d6000fd5b505050506040513d602081101561472357600080fd5b505190506147396001600160a01b038716612c7d565b1561481457600154604080516370a0823160e01b815230600482015290516001600160a01b0390921691632e1a7d4d9183916370a0823191602480820192602092909190829003018186803b15801561479157600080fd5b505afa1580156147a5573d6000803e3d6000fd5b505050506040513d60208110156147bb57600080fd5b5051604080516001600160e01b031960e085901b168152600481019290925251602480830192600092919082900301818387803b1580156147fb57600080fd5b505af115801561480f573d6000803e3d6000fd5b505050505b9695505050505050565b6000614832846001600160a01b0316612c7d565b15614896576000805460408051630d0e30db60e41b815290516001600160a01b039092169263d0e30db0928692600480820193929182900301818588803b15801561487c57600080fd5b505af1158015614890573d6000803e3d6000fd5b50505050505b6148d36148ab856001600160a01b0316612c7d565b6148b557846148c2565b6000546001600160a01b03165b600b546001600160a01b0316613f24565b600b546000906001600160a01b0390811690630621b4f6906148f6908816612c7d565b614900578661490d565b6000546001600160a01b03165b85614920886001600160a01b0316612c7d565b61492a5787614937565b6000546001600160a01b03165b604080516001600160e01b031960e087901b1681526001600160a01b03948516600482015260248101939093529216604482015260016064820152905160848083019260209291908290030181600087803b15801561499557600080fd5b505af11580156149a9573d6000803e3d6000fd5b505050506040513d60208110156149bf57600080fd5b505190506149d56001600160a01b038516612c7d565b156117d657600054604080516370a0823160e01b815230600482015290516001600160a01b0390921691632e1a7d4d9183916370a0823191602480820192602092909190829003018186803b158015614a2d57600080fd5b505afa158015614a41573d6000803e3d6000fd5b505050506040513d6020811015614a5757600080fd5b5051604080516001600160e01b031960e085901b168152600481019290925251602480830192600092919082900301818387803b158015614a9757600080fd5b505af1158015614aab573d6000803e3d6000fd5b5050505090509392505050565b604080516001600160a01b038416602482015260448082018490528251808303909101815260649091019091526020810180516001600160e01b031663a9059cbb60e01b179052614b0a908490614bf2565b505050565b6000838015614bb057600184168015614b2a57859250614b2e565b8392505b50600283046002850494505b8415614baa578586028687820414614b5157600080fd5b81810181811015614b6157600080fd5b85810497506002870615614b9d578785028589820414158915151615614b8657600080fd5b83810181811015614b9657600080fd5b8790049550505b5050600285049450614b3a565b50614bc6565b838015614bc05760009250614bc4565b8392505b505b509392505050565b6000811580614be957505080820282828281614be657fe5b04145b6126af57600080fd5b614c04826001600160a01b0316614df8565b614c55576040805162461bcd60e51b815260206004820152601f60248201527f5361666545524332303a2063616c6c20746f206e6f6e2d636f6e747261637400604482015290519081900360640190fd5b60006060836001600160a01b0316836040518082805190602001908083835b60208310614c935780518252601f199092019160209182019101614c74565b6001836020036101000a0380198251168184511680821785525050505050509050019150506000604051808303816000865af19150503d8060008114614cf5576040519150601f19603f3d011682016040523d82523d6000602084013e614cfa565b606091505b509150915081614d51576040805162461bcd60e51b815260206004820181905260248201527f5361666545524332303a206c6f772d6c6576656c2063616c6c206661696c6564604482015290519081900360640190fd5b805115612feb57808060200190516020811015614d6d57600080fd5b5051612feb5760405162461bcd60e51b815260040180806020018281038252602a815260200180615030602a913960400191505060405180910390fd5b6001600160a01b03831615801590614dd957506001600160a01b03831660008051602061501083398151915214155b15614b0a57614b0a6001600160a01b038416838363ffffffff614e2f16565b6000813f7fc5d2460186f7233c927e7db2dcc703c0e500b653ca82273b7bfad8045d85a47081158015906117d65750141592915050565b801580614eb5575060408051636eb1769f60e11b81523060048201526001600160a01b03848116602483015291519185169163dd62ed3e91604480820192602092909190829003018186803b158015614e8757600080fd5b505afa158015614e9b573d6000803e3d6000fd5b505050506040513d6020811015614eb157600080fd5b5051155b614ef05760405162461bcd60e51b815260040180806020018281038252603681526020018061505a6036913960400191505060405180910390fd5b604080516001600160a01b038416602482015260448082018490528251808303909101815260649091019091526020810180516001600160e01b031663095ea7b360e01b179052614b0a908490614bf2565b60405180608001604052806004905b614f88815260200190600190039081614f515790505090565b60405180608001604052806004906020820280388339509192915050565bfefe4f6e6553706c69743a2061637475616c2072657475726e20616d6f756e74206973206c657373207468616e206d696e52657475726e4f6e6553706c69743a20646973747269627574696f6e2073686f756c6420636f6e7461696e206e6f6e2d7a65726f73536166654d6174683a206d756c7469706c69636174696f6e206f766572666c6f77000000000000000000000000eeeeeeeeeeeeeeeeeeeeeeeeeeeeeeeeeeeeeeee5361666545524332303a204552433230206f7065726174696f6e20646964206e6f7420737563636565645361666545524332303a20617070726f76652066726f6d206e6f6e2d7a65726f20746f206e6f6e2d7a65726f20616c6c6f77616e6365a265627a7a723158205082d1a62969f02461e7f40584c52fe0286c0372a52dba6dd0a79e01c7fd3ae764736f6c634300050e0032",
  "source": "pragma solidity ^0.5.0;\n\nimport \"@openzeppelin/contracts/math/SafeMath.sol\";\nimport \"@openzeppelin/contracts/token/ERC20/ERC20Detailed.sol\";\nimport \"./interface/IUniswapFactory.sol\";\nimport \"./interface/IKyberNetworkProxy.sol\";\nimport \"./interface/IKyberUniswapReserve.sol\";\nimport \"./interface/IKyberOasisReserve.sol\";\nimport \"./interface/IKyberBancorReserve.sol\";\nimport \"./interface/IBancorNetwork.sol\";\nimport \"./interface/IBancorContractRegistry.sol\";\nimport \"./interface/IBancorNetworkPathFinder.sol\";\nimport \"./interface/IBancorEtherToken.sol\";\nimport \"./interface/IOasisExchange.sol\";\nimport \"./interface/ICompound.sol\";\nimport \"./interface/IFulcrum.sol\";\nimport \"./interface/IWETH.sol\";\nimport \"./interface/IChai.sol\";\nimport \"./interface/IAaveToken.sol\";\nimport \"./UniversalERC20.sol\";\n\n\nlibrary DisableFlags {\n    function enabled(uint256 disableFlags, uint256 flag) internal pure returns(bool) {\n        return (disableFlags & flag) == 0;\n    }\n\n    function disabled(uint256 disableFlags, uint256 flag) internal pure returns(bool) {\n        return (disableFlags & flag) != 0;\n    }\n}\n\n\ncontract OneSplit {\n\n    using SafeMath for uint256;\n    using DisableFlags for uint256;\n    using ChaiHelper for IChai;\n    using UniversalERC20 for IERC20;\n    using UniversalERC20 for IWETH;\n    using UniversalERC20 for IBancorEtherToken;\n\n    //\n    // disableFlags = FLAG_UNISWAP + FLAG_KYBER + ...\n    //\n    uint256 constant public FLAG_UNISWAP = 0x01;\n    uint256 constant public FLAG_KYBER = 0x02;\n    uint256 constant public FLAG_BANCOR = 0x04;\n    uint256 constant public FLAG_OASIS = 0x08;\n    uint256 constant public FLAG_COMPOUND = 0x10;\n    uint256 constant public FLAG_FULCRUM = 0x20;\n    uint256 constant public FLAG_CHAI = 0x40;\n    uint256 constant public FLAG_AAVE = 0x80;\n\n    IERC20 constant public ETH_ADDRESS = IERC20(0xEeeeeEeeeEeEeeEeEeEeeEEEeeeeEeeeeeeeEEeE);\n\n    IWETH wethToken = IWETH(0xC02aaA39b223FE8D0A0e5C4F27eAD9083C756Cc2);\n    IBancorEtherToken bancorEtherToken = IBancorEtherToken(0xc0829421C1d260BD3cB3E0F06cfE2D52db2cE315);\n\n    ICompound public compound = ICompound(0x3d9819210A31b4961b30EF54bE2aeD79B9c9Cd3B);\n    ICompoundEther public cETH = ICompoundEther(0x4Ddc2D193948926D02f9B1fE9e1daa0718270ED5);\n\n    IERC20 public dai = IERC20(0x6B175474E89094C44Da98b954EedeAC495271d0F);\n    IChai public chai = IChai(0x06AF07097C9Eeb7fD685c692751D5C66dB49c215);\n    IAaveLendingPool public aave = IAaveLendingPool(0x398eC7346DcD622eDc5ae82352F02bE94C62d119);\n\n    IKyberNetworkProxy public kyberNetworkProxy = IKyberNetworkProxy(0x818E6FECD516Ecc3849DAf6845e3EC868087B755);\n    IUniswapFactory public uniswapFactory = IUniswapFactory(0xc0a47dFe034B400B47bDaD5FecDa2621de6c4d95);\n    IBancorContractRegistry public bancorContractRegistry = IBancorContractRegistry(0x52Ae12ABe5D8BD778BD5397F99cA900624CfADD4);\n    IBancorNetworkPathFinder bancorNetworkPathFinder = IBancorNetworkPathFinder(0x6F0cD8C4f6F06eAB664C7E3031909452b4B72861);\n    IOasisExchange public oasisExchange = IOasisExchange(0x39755357759cE0d7f32dC8dC45414CCa409AE24e);\n\n    function() external payable {\n        // solium-disable-next-line security/no-tx-origin\n        require(msg.sender != tx.origin);\n    }\n\n    function log(uint256) external view {\n    }\n\n    function getAllRatesForDEX(\n        IERC20 fromToken,\n        IERC20 toToken,\n        uint256 amount,\n        uint256 parts,\n        uint256 disableFlags\n    ) public view returns(uint256[] memory results) {\n        results = new uint256[](parts);\n        for (uint i = 0; i < parts; i++) {\n            (results[i],) = getExpectedReturn(\n                fromToken,\n                toToken,\n                amount.mul(i + 1).div(parts),\n                1,\n                disableFlags\n            );\n        }\n    }\n\n    function getExpectedReturn(\n        IERC20 fromToken,\n        IERC20 toToken,\n        uint256 amount,\n        uint256 parts,\n        uint256 disableFlags // 1 - Uniswap, 2 - Kyber, 4 - Bancor, 8 - Oasis, 16 - Compound, 32 - Fulcrum\n    )\n        public\n        view\n        returns(\n            uint256 returnAmount,\n            uint256[] memory distribution // [Uniswap, Kyber, Bancor, Oasis]\n        )\n    {\n        distribution = new uint256[](4);\n\n        if (fromToken == toToken) {\n            returnAmount = amount;\n            return (returnAmount, distribution);\n        }\n\n        if (disableFlags.enabled(FLAG_COMPOUND)) {\n            if (_isCompoundToken(fromToken)) {\n                IERC20 underlying = _compoundUnderlyingAsset(fromToken);\n                if (underlying != IERC20(-1)) {\n                    uint256 compoundRate = ICompoundToken(address(fromToken)).exchangeRateStored();\n\n                    return getExpectedReturn(\n                        underlying,\n                        toToken,\n                        amount.mul(compoundRate).div(1e18),\n                        parts,\n                        disableFlags\n                    );\n                }\n            }\n\n            if (_isCompoundToken(toToken)) {\n                IERC20 underlying = _compoundUnderlyingAsset(toToken);\n                if (underlying != IERC20(-1)) {\n                    uint256 compoundRate = ICompoundToken(address(toToken)).exchangeRateStored();\n\n                    (returnAmount, distribution) = getExpectedReturn(\n                        fromToken,\n                        underlying,\n                        amount,\n                        parts,\n                        disableFlags\n                    );\n\n                    returnAmount = returnAmount.mul(1e18).div(compoundRate);\n                    return (returnAmount, distribution);\n                }\n            }\n        }\n\n        if (disableFlags.enabled(FLAG_FULCRUM)) {\n            IERC20 underlying = _isFulcrumToken(fromToken);\n            if (underlying != IERC20(-1)) {\n                uint256 fulcrumRate = IFulcrumToken(address(fromToken)).tokenPrice();\n\n                return getExpectedReturn(\n                    underlying,\n                    toToken,\n                    amount.mul(fulcrumRate).div(1e18),\n                    parts,\n                    disableFlags\n                );\n            }\n\n            underlying = _isFulcrumToken(toToken);\n            if (underlying != IERC20(-1)) {\n                uint256 fulcrumRate = IFulcrumToken(address(toToken)).tokenPrice();\n\n                (returnAmount, distribution) = getExpectedReturn(\n                    fromToken,\n                    underlying,\n                    amount,\n                    parts,\n                    disableFlags\n                );\n\n                returnAmount = returnAmount.mul(1e18).div(fulcrumRate);\n                return (returnAmount, distribution);\n            }\n        }\n\n        if (disableFlags.enabled(FLAG_CHAI)) {\n            if (fromToken == IERC20(chai)) {\n                return getExpectedReturn(\n                    dai,\n                    toToken,\n                    chai.chaiToDai(amount),\n                    parts,\n                    disableFlags\n                );\n            }\n\n            if (toToken == IERC20(chai)) {\n                (returnAmount, distribution) = getExpectedReturn(\n                    fromToken,\n                    dai,\n                    amount,\n                    parts,\n                    disableFlags\n                );\n                return (chai.daiToChai(returnAmount), distribution);\n            }\n        }\n\n        if (disableFlags.enabled(FLAG_AAVE)) {\n            IERC20 underlying = _isAaveToken(fromToken);\n            if (underlying != IERC20(-1)) {\n                return getExpectedReturn(\n                    underlying,\n                    toToken,\n                    amount,\n                    parts,\n                    disableFlags\n                );\n            }\n\n            underlying = _isAaveToken(toToken);\n            if (underlying != IERC20(-1)) {\n                return getExpectedReturn(\n                    fromToken,\n                    underlying,\n                    amount,\n                    parts,\n                    disableFlags\n                );\n            }\n        }\n\n        function(IERC20,IERC20,uint256) view returns(uint256)[4] memory reserves = [\n            disableFlags.disabled(FLAG_UNISWAP) ? _calculateNoReturn : calculateUniswapReturn,\n            disableFlags.disabled(FLAG_KYBER)   ? _calculateNoReturn : calculateKyberReturn,\n            disableFlags.disabled(FLAG_BANCOR)  ? _calculateNoReturn : calculateBancorReturn,\n            disableFlags.disabled(FLAG_OASIS)   ? _calculateNoReturn : calculateOasisReturn\n        ];\n\n        uint256[4] memory rates;\n        uint256[4] memory fullRates;\n        for (uint i = 0; i < rates.length; i++) {\n            rates[i] = reserves[i](fromToken, toToken, amount.div(parts));\n            this.log(rates[i]);\n            fullRates[i] = rates[i];\n        }\n\n        for (uint j = 0; j < parts; j++) {\n            // Find best part\n            uint256 bestIndex = 0;\n            for (uint i = 1; i < rates.length; i++) {\n                if (rates[i] > rates[bestIndex]) {\n                    bestIndex = i;\n                }\n            }\n\n            // Add best part\n            returnAmount = returnAmount.add(rates[bestIndex]);\n            distribution[bestIndex]++;\n\n            // Avoid CompilerError: Stack too deep\n            uint256 srcAmount = amount;\n\n            // Recalc part if needed\n            if (j + 1 < parts) {\n                uint256 newRate = reserves[bestIndex](\n                    fromToken,\n                    toToken,\n                    srcAmount.mul(distribution[bestIndex] + 1).div(parts)\n                );\n                rates[bestIndex] = newRate.sub(fullRates[bestIndex]);\n                this.log(rates[bestIndex]);\n                fullRates[bestIndex] = newRate;\n            }\n        }\n    }\n\n    function swap(\n        IERC20 fromToken,\n        IERC20 toToken,\n        uint256 amount,\n        uint256 minReturn,\n        uint256[] memory distribution, // [Uniswap, Kyber, Bancor, Oasis]\n        uint256 disableFlags // 16 - Compound, 32 - Fulcrum\n    ) public payable {\n        fromToken.universalTransferFrom(msg.sender, address(this), amount);\n\n        _swap(fromToken, toToken, amount, distribution, disableFlags);\n\n        uint256 returnAmount = toToken.universalBalanceOf(address(this));\n        require(returnAmount >= minReturn, \"OneSplit: actual return amount is less than minReturn\");\n        toToken.universalTransfer(msg.sender, returnAmount);\n        fromToken.universalTransfer(msg.sender, fromToken.universalBalanceOf(address(this)));\n    }\n\n    function _swap(\n        IERC20 fromToken,\n        IERC20 toToken,\n        uint256 amount,\n        uint256[] memory distribution, // [Uniswap, Kyber, Bancor, Oasis]\n        uint256 disableFlags // 16 - Compound\n    ) internal {\n        if (fromToken == toToken) {\n            return;\n        }\n\n        if (disableFlags.enabled(FLAG_COMPOUND)) {\n            if (_isCompoundToken(fromToken)) {\n                IERC20 underlying = _compoundUnderlyingAsset(fromToken);\n\n                ICompoundToken(address(fromToken)).redeem(amount);\n                uint256 underlyingAmount = underlying.universalBalanceOf(address(this));\n\n                return _swap(\n                    underlying,\n                    toToken,\n                    underlyingAmount,\n                    distribution,\n                    disableFlags\n                );\n            }\n\n            if (_isCompoundToken(toToken)) {\n                IERC20 underlying = _compoundUnderlyingAsset(toToken);\n\n                _swap(\n                    fromToken,\n                    underlying,\n                    amount,\n                    distribution,\n                    disableFlags\n                );\n\n                uint256 underlyingAmount = underlying.universalBalanceOf(address(this));\n\n                if (underlying.isETH()) {\n                    cETH.mint.value(underlyingAmount)();\n                } else {\n                    _infiniteApproveIfNeeded(underlying, address(toToken));\n                    ICompoundToken(address(toToken)).mint(underlyingAmount);\n                }\n                return;\n            }\n        }\n\n        if (disableFlags.enabled(FLAG_FULCRUM)) {\n            IERC20 underlying = _isFulcrumToken(fromToken);\n            if (underlying != IERC20(-1)) {\n                if (underlying.isETH()) {\n                    IFulcrumToken(address(fromToken)).burnToEther(address(this), amount);\n                } else {\n                    IFulcrumToken(address(fromToken)).burn(address(this), amount);\n                }\n\n                uint256 underlyingAmount = underlying.universalBalanceOf(address(this));\n\n                return _swap(\n                    underlying,\n                    toToken,\n                    underlyingAmount,\n                    distribution,\n                    disableFlags\n                );\n            }\n\n            underlying = _isFulcrumToken(toToken);\n            if (underlying != IERC20(-1)) {\n                _swap(\n                    fromToken,\n                    underlying,\n                    amount,\n                    distribution,\n                    disableFlags\n                );\n\n                uint256 underlyingAmount = underlying.universalBalanceOf(address(this));\n\n                if (underlying.isETH()) {\n                    IFulcrumToken(address(toToken)).mintWithEther.value(underlyingAmount)(address(this));\n                } else {\n                    _infiniteApproveIfNeeded(underlying, address(toToken));\n                    IFulcrumToken(address(toToken)).mint(address(this), underlyingAmount);\n                }\n                return;\n            }\n        }\n\n        if (disableFlags.enabled(FLAG_CHAI)) {\n            if (fromToken == IERC20(chai)) {\n                chai.exit(address(this), amount);\n\n                return _swap(\n                    dai,\n                    toToken,\n                    dai.balanceOf(address(this)),\n                    distribution,\n                    disableFlags\n                );\n            }\n\n            if (toToken == IERC20(chai)) {\n                _swap(\n                    fromToken,\n                    dai,\n                    amount,\n                    distribution,\n                    disableFlags\n                );\n\n                _infiniteApproveIfNeeded(dai, address(chai));\n                chai.join(address(this), dai.balanceOf(address(this)));\n                return;\n            }\n        }\n\n        if (disableFlags.enabled(FLAG_AAVE)) {\n            IERC20 underlying = _isAaveToken(fromToken);\n            if (underlying != IERC20(-1)) {\n                IAaveToken(address(fromToken)).redeem(amount);\n\n                return _swap(\n                    underlying,\n                    toToken,\n                    amount,\n                    distribution,\n                    disableFlags\n                );\n            }\n\n            underlying = _isAaveToken(toToken);\n            if (underlying != IERC20(-1)) {\n                _swap(\n                    fromToken,\n                    underlying,\n                    amount,\n                    distribution,\n                    disableFlags\n                );\n\n                uint256 underlyingAmount = underlying.universalBalanceOf(address(this));\n\n                _infiniteApproveIfNeeded(underlying, aave.core());\n                aave.deposit.value(underlying.isETH() ? underlyingAmount : 0)(\n                    underlying.isETH() ? ETH_ADDRESS : underlying,\n                    underlyingAmount,\n                    1101\n                );\n                return;\n            }\n        }\n\n        function(IERC20,IERC20,uint256) returns(uint256)[4] memory reserves = [\n            _swapOnUniswap,\n            _swapOnKyber,\n            _swapOnBancor,\n            _swapOnOasis\n        ];\n\n        uint256 parts = 0;\n        uint256 lastNonZeroIndex = 0;\n        for (uint i = 0; i < reserves.length; i++) {\n            if (distribution[i] > 0) {\n                parts = parts.add(distribution[i]);\n                lastNonZeroIndex = i;\n            }\n        }\n\n        require(parts > 0, \"OneSplit: distribution should contain non-zeros\");\n\n        uint256 remainingAmount = amount;\n        for (uint i = 0; i < reserves.length; i++) {\n            if (distribution[i] == 0) {\n                continue;\n            }\n\n            uint256 swapAmount = amount.mul(distribution[i]).div(parts);\n            if (i == lastNonZeroIndex) {\n                swapAmount = remainingAmount;\n            }\n            remainingAmount -= swapAmount;\n            reserves[i](fromToken, toToken, swapAmount);\n        }\n    }\n\n    function goodSwap(\n        IERC20 fromToken,\n        IERC20 toToken,\n        uint256 amount,\n        uint256 minReturn,\n        uint256 parts,\n        uint256 disableFlags // 1 - Uniswap, 2 - Kyber, 4 - Bancor, 8 - Oasis, 16 - Compound, 32 - Fulcrum\n    ) public payable {\n        (, uint256[] memory distribution) = getExpectedReturn(fromToken, toToken, amount, parts, disableFlags);\n        swap(\n            fromToken,\n            toToken,\n            amount,\n            minReturn,\n            distribution,\n            disableFlags\n        );\n    }\n\n    // View Helpers\n\n    function calculateUniswapReturn(\n        IERC20 fromToken,\n        IERC20 toToken,\n        uint256 amount\n    ) public view returns(uint256) {\n        uint256 returnAmount = amount;\n\n        if (!fromToken.isETH()) {\n            IUniswapExchange fromExchange = uniswapFactory.getExchange(fromToken);\n            if (fromExchange != IUniswapExchange(0)) {\n                (bool success, bytes memory data) = address(fromExchange).staticcall.gas(200000)(\n                    abi.encodeWithSelector(\n                        fromExchange.getTokenToEthInputPrice.selector,\n                        returnAmount\n                    )\n                );\n                if (success) {\n                    returnAmount = abi.decode(data, (uint256));\n                } else {\n                    returnAmount = 0;\n                }\n            }\n        }\n\n        if (!toToken.isETH()) {\n            IUniswapExchange toExchange = uniswapFactory.getExchange(toToken);\n            if (toExchange != IUniswapExchange(0)) {\n                (bool success, bytes memory data) = address(toExchange).staticcall.gas(200000)(\n                    abi.encodeWithSelector(\n                        toExchange.getEthToTokenInputPrice.selector,\n                        returnAmount\n                    )\n                );\n                if (success) {\n                    returnAmount = abi.decode(data, (uint256));\n                } else {\n                    returnAmount = 0;\n                }\n            }\n        }\n\n        return returnAmount;\n    }\n\n    function calculateKyberReturn(\n        IERC20 fromToken,\n        IERC20 toToken,\n        uint256 amount\n    ) public view returns(uint256) {\n        (bool success, bytes memory data) = address(kyberNetworkProxy).staticcall.gas(2300)(abi.encodeWithSelector(\n            kyberNetworkProxy.kyberNetworkContract.selector\n        ));\n        if (!success) {\n            return 0;\n        }\n\n        IKyberNetworkContract kyberNetworkContract = IKyberNetworkContract(abi.decode(data, (address)));\n\n        if (fromToken.isETH() || toToken.isETH()) {\n            return _calculateKyberReturnWithEth(kyberNetworkContract, fromToken, toToken, amount);\n        }\n\n        uint256 value = _calculateKyberReturnWithEth(kyberNetworkContract, fromToken, ETH_ADDRESS, amount);\n        if (value == 0) {\n            return 0;\n        }\n\n        return _calculateKyberReturnWithEth(kyberNetworkContract, ETH_ADDRESS, toToken, value);\n    }\n\n    function _calculateKyberReturnWithEth(\n        IKyberNetworkContract kyberNetworkContract,\n        IERC20 fromToken,\n        IERC20 toToken,\n        uint256 amount\n    ) public view returns(uint256) {\n        (bool success, bytes memory data) = address(kyberNetworkContract).staticcall.gas(200000)(abi.encodeWithSelector(\n            kyberNetworkContract.searchBestRate.selector,\n            fromToken.isETH() ? ETH_ADDRESS : fromToken,\n            toToken.isETH() ? ETH_ADDRESS : toToken,\n            amount,\n            true\n        ));\n        if (!success) {\n            return 0;\n        }\n\n        (address reserve, uint256 rate) = abi.decode(data, (address,uint256));\n\n        if (reserve == 0x54A4a1167B004b004520c605E3f01906f683413d || // Uniswap\n            reserve == 0xCf1394C5e2e879969fdB1f464cE1487147863dCb || // Oasis\n            reserve == 0x053AA84FCC676113a57e0EbB0bD1913839874bE4)   // Bancor\n        {\n            return 0;\n        }\n\n        // Check for Uniswap reserve\n        (success,) = reserve.staticcall.gas(2300)(abi.encodeWithSelector(\n            IKyberUniswapReserve(reserve).uniswapFactory.selector\n        ));\n        if (success) {\n            return 0;\n        }\n\n        // Check for Oasis reserve\n        (success,) = reserve.staticcall.gas(2300)(abi.encodeWithSelector(\n            IKyberOasisReserve(reserve).otc.selector\n        ));\n        if (success) {\n            return 0;\n        }\n\n        // Check for Bancor reserve\n        (success,) = reserve.staticcall.gas(2300)(abi.encodeWithSelector(\n            IKyberBancorReserve(reserve).bancorEth.selector\n        ));\n        if (success) {\n            return 0;\n        }\n\n        return rate.mul(amount)\n            .mul(10 ** IERC20(toToken).universalDecimals())\n            .div(10 ** IERC20(fromToken).universalDecimals())\n            .div(1e18);\n    }\n\n    function calculateBancorReturn(\n        IERC20 fromToken,\n        IERC20 toToken,\n        uint256 amount\n    ) public view returns(uint256) {\n        IBancorNetwork bancorNetwork = IBancorNetwork(bancorContractRegistry.addressOf(\"BancorNetwork\"));\n        address[] memory path = bancorNetworkPathFinder.generatePath(\n            fromToken.isETH() ? bancorEtherToken : fromToken,\n            toToken.isETH() ? bancorEtherToken : toToken\n        );\n\n        (bool success, bytes memory data) = address(bancorNetwork).staticcall.gas(200000)(\n            abi.encodeWithSelector(\n                bancorNetwork.getReturnByPath.selector,\n                path,\n                amount\n            )\n        );\n        if (!success) {\n            return 0;\n        }\n\n        (uint256 returnAmount,) = abi.decode(data, (uint256,uint256));\n        return returnAmount;\n    }\n\n    function calculateOasisReturn(\n        IERC20 fromToken,\n        IERC20 toToken,\n        uint256 amount\n    ) public view returns(uint256) {\n        (bool success, bytes memory data) = address(oasisExchange).staticcall.gas(500000)(\n            abi.encodeWithSelector(\n                oasisExchange.getBuyAmount.selector,\n                toToken.isETH() ? wethToken : toToken,\n                fromToken.isETH() ? wethToken : fromToken,\n                amount\n            )\n        );\n        if (!success) {\n            return 0;\n        }\n\n        return abi.decode(data, (uint256));\n    }\n\n    function _calculateNoReturn(\n        IERC20 /*fromToken*/,\n        IERC20 /*toToken*/,\n        uint256 /*amount*/\n    ) internal view returns(uint256) {\n        this;\n    }\n\n    // Swap Helpers\n\n    function _swapOnUniswap(\n        IERC20 fromToken,\n        IERC20 toToken,\n        uint256 amount\n    ) internal returns(uint256) {\n\n        uint256 returnAmount = amount;\n\n        if (!fromToken.isETH()) {\n            IUniswapExchange fromExchange = uniswapFactory.getExchange(fromToken);\n            if (fromExchange != IUniswapExchange(0)) {\n                _infiniteApproveIfNeeded(fromToken, address(fromExchange));\n                returnAmount = fromExchange.tokenToEthSwapInput(returnAmount, 1, now);\n            }\n        }\n\n        if (!toToken.isETH()) {\n            IUniswapExchange toExchange = uniswapFactory.getExchange(toToken);\n            if (toExchange != IUniswapExchange(0)) {\n                returnAmount = toExchange.ethToTokenSwapInput.value(returnAmount)(1, now);\n            }\n        }\n\n        return returnAmount;\n    }\n\n    function _swapOnKyber(\n        IERC20 fromToken,\n        IERC20 toToken,\n        uint256 amount\n    ) internal returns(uint256) {\n        _infiniteApproveIfNeeded(fromToken, address(kyberNetworkProxy));\n        return kyberNetworkProxy.tradeWithHint.value(fromToken.isETH() ? amount : 0)(\n            fromToken.isETH() ? ETH_ADDRESS : fromToken,\n            amount,\n            toToken.isETH() ? ETH_ADDRESS : toToken,\n            address(this),\n            1 << 255,\n            0,\n            0x4D37f28D2db99e8d35A6C725a5f1749A085850a3,\n            \"\"\n        );\n    }\n\n    function _swapOnBancor(\n        IERC20 fromToken,\n        IERC20 toToken,\n        uint256 amount\n    ) internal returns(uint256) {\n        if (fromToken.isETH()) {\n            bancorEtherToken.deposit.value(amount)();\n        }\n\n        IBancorNetwork bancorNetwork = IBancorNetwork(bancorContractRegistry.addressOf(\"BancorNetwork\"));\n        address[] memory path = bancorNetworkPathFinder.generatePath(\n            fromToken.isETH() ? bancorEtherToken : fromToken,\n            toToken.isETH() ? bancorEtherToken : toToken\n        );\n\n        _infiniteApproveIfNeeded(fromToken.isETH() ? bancorEtherToken : fromToken, address(bancorNetwork));\n        uint256 returnAmount = bancorNetwork.claimAndConvert(path, amount, 1);\n\n        if (toToken.isETH()) {\n            bancorEtherToken.withdraw(bancorEtherToken.balanceOf(address(this)));\n        }\n\n        return returnAmount;\n    }\n\n    function _swapOnOasis(\n        IERC20 fromToken,\n        IERC20 toToken,\n        uint256 amount\n    ) internal returns(uint256) {\n        if (fromToken.isETH()) {\n            wethToken.deposit.value(amount)();\n        }\n\n        _infiniteApproveIfNeeded(fromToken.isETH() ? wethToken : fromToken, address(oasisExchange));\n        uint256 returnAmount = oasisExchange.sellAllAmount(\n            fromToken.isETH() ? wethToken : fromToken,\n            amount,\n            toToken.isETH() ? wethToken : toToken,\n            1\n        );\n\n        if (toToken.isETH()) {\n            wethToken.withdraw(wethToken.balanceOf(address(this)));\n        }\n\n        return returnAmount;\n    }\n\n    // Helpers\n\n    function _infiniteApproveIfNeeded(IERC20 token, address to) internal {\n        if (!token.isETH()) {\n            if ((token.allowance(address(this), to) >> 255) == 0) {\n                token.universalApprove(to, uint256(- 1));\n            }\n        }\n    }\n\n    function _isCompoundToken(IERC20 token) internal view returns(bool) {\n        if (token == cETH) {\n            return true;\n        }\n\n        (bool success, bytes memory data) = address(compound).staticcall.gas(5000)(abi.encodeWithSelector(\n            compound.markets.selector,\n            token\n        ));\n        if (!success) {\n            return false;\n        }\n\n        (bool isListed,) = abi.decode(data, (bool,uint256));\n        return isListed;\n    }\n\n    function _compoundUnderlyingAsset(IERC20 asset) internal view returns(IERC20) {\n        if (asset == cETH) {\n            return IERC20(address(0));\n        }\n\n        (bool success, bytes memory data) = address(asset).staticcall.gas(5000)(abi.encodeWithSelector(\n            ICompoundToken(address(asset)).underlying.selector\n        ));\n        if (!success) {\n            return IERC20(-1);\n        }\n\n        return abi.decode(data, (IERC20));\n    }\n\n    function _isFulcrumToken(IERC20 token) public view returns(IERC20) {\n        if (token.isETH()) {\n            return IERC20(-1);\n        }\n\n        (bool success, bytes memory data) = address(token).staticcall.gas(5000)(abi.encodeWithSelector(\n            ERC20Detailed(address(token)).name.selector\n        ));\n        if (!success) {\n            return IERC20(-1);\n        }\n\n        bool foundBZX = false;\n        for (uint i = 0; i < data.length - 7; i++) {\n            if (data[i + 0] == \"F\" &&\n                data[i + 1] == \"u\" &&\n                data[i + 2] == \"l\" &&\n                data[i + 3] == \"c\" &&\n                data[i + 4] == \"r\" &&\n                data[i + 5] == \"u\" &&\n                data[i + 6] == \"m\")\n            {\n                foundBZX = true;\n                break;\n            }\n        }\n        if (!foundBZX) {\n            return IERC20(-1);\n        }\n\n        (success, data) = address(token).staticcall.gas(5000)(abi.encodeWithSelector(\n            IFulcrumToken(address(token)).loanTokenAddress.selector\n        ));\n        if (!success) {\n            return IERC20(-1);\n        }\n\n        return abi.decode(data, (IERC20));\n    }\n\n    function _isAaveToken(IERC20 token) public view returns(IERC20) {\n        if (token.isETH()) {\n            return IERC20(-1);\n        }\n\n        (bool success, bytes memory data) = address(token).staticcall.gas(5000)(abi.encodeWithSelector(\n            ERC20Detailed(address(token)).name.selector\n        ));\n        if (!success) {\n            return IERC20(-1);\n        }\n\n        bool foundAave = false;\n        for (uint i = 0; i < data.length - 4; i++) {\n            if (data[i + 0] == \"A\" &&\n                data[i + 1] == \"a\" &&\n                data[i + 2] == \"v\" &&\n                data[i + 3] == \"e\")\n            {\n                foundAave = true;\n                break;\n            }\n        }\n        if (!foundAave) {\n            return IERC20(-1);\n        }\n\n        (success, data) = address(token).staticcall.gas(5000)(abi.encodeWithSelector(\n            IAaveToken(address(token)).underlyingAssetAddress.selector\n        ));\n        if (!success) {\n            return IERC20(-1);\n        }\n\n        return abi.decode(data, (IERC20));\n    }\n}\n",
  "sourcePath": "/Users/admin/Documents/GitHub/horizin/shadow/bank/dex-aggregator/contracts/OneSplit.sol",
  "compiler": {
    "name": "solc",
    "version": "0.5.14+commit.01f1aaa4.Emscripten.clang"
  },
  "schemaVersion": "3.0.23",
  "updatedAt": "2020-03-18T17:53:20.824Z",
  "devdoc": {
    "methods": {}
  },
  "userdoc": {
    "methods": {}
  }
}